:100000000C94C40E0C94F10E0C94F10E0C94F10EA1
:100010000C94F10E0C94F10E0C94F10E0C94F10E64
:100020000C94F10E0C94F10E0C94F10E0C94F10E54
:100030000C94F10E0C9430E60C94F10E0C94F10E2D
:100040000C94F10E0C9455620C94F10E0C94F10E7C
:100050000C94F10E0C94F10E0C94DC550C94DBE234
:100060000C94F10E0C94FED10C94F10E0C94F10E44
:100070000C94F10E0C94F10E0C94F10E0C94F10E04
:100080000C94F10E0C94F10E0C94F10E0C94F10EF4
:100090000C94F10E0C94F10E0C94F10E0C9462DFA2
:1000A0000C94F10E0C94F10E0C94F10E0C94F10ED4
:1000B0000C94F10E0C94F10E0C94F10E0C94F10EC4
:1000C0000C94F10E0C94F10E0C94F10E0C94F10EB4
:1000D0000C94F10E0C94F10E0C94F10E0C94F10EA4
:1000E0000C94F10E084AD73B3BCE016E84BCBFFD99
:1000F000C12F3D6C74319ABD56833DDA3D00C77FF8
:1001000011BED9E4BB4C3E916BAAAABE0000008090
:100110003F05A84CCDB2D44EB93836A9020C50B91F
:10012000918688083CA6AAAA2ABE000000803F2D1E
:100130002D3A2D2D002D2D2D005344002059000166
:1001400020000120004E6F20534420636172640040
:100150005072696E742066726F6D20534400537440
:100160006F70207072696E7400526573756D6520D2
:100170007072696E74005061757365207072696E7B
:100180007400436F6E74726F6C00507265706172B0
:10019000650054756E6500496E666F207363726505
:1001A000656E00052E2E004D61696E004D323400E3
:1001B0004D3233202573004D383420582059205AB1
:1001C000204500526573746F7265206661696C73B7
:1001D000616665004C6F6164206D656D6F727900BA
:1001E00053746F7265206D656D6F7279004D6F7419
:1001F000696F6E0054656D7065726174757265002B
:100200004D61696E004573746570732F6D6D0045A7
:1002100073746570732F6D6D005A73746570732FEE
:100220006D6D005A73746570732F6D6D0059737422
:100230006570732F6D6D005973746570732F6D6DDC
:10024000005873746570732F6D6D0058737465700A
:10025000732F6D6D00412D7265747261637400417E
:100260002D7265747261637400416D617820650060
:10027000416D6178206500416D6178207A00416DA3
:100280006178207A00416D6178207900416D617854
:10029000207900416D6178207800416D6178207887
:1002A000005654726176206D696E00565472617604
:1002B000206D696E00566D696E00566D696E005650
:1002C0006D6178206500566D6178206500566D611E
:1002D00078207A00566D6178207A00566D6178201A
:1002E0007900566D6178207900566D61782078002C
:1002F000566D617820780056652D6A65726B0056E0
:10030000652D6A65726B00567A2D6A65726B0056B0
:100310007A2D6A65726B005678792D6A65726B006A
:100320005678792D6A65726B00416363656C004194
:100330006363656C005A204F6666736574005A20CB
:100340004F666673657400436F6E74726F6C005015
:100350007265686561742041425320636F6E660068
:100360005072656865617420504C4120636F6E6601
:10037000005049442D43005049442D430050494406
:100380002D44005049442D44005049442D4900500B
:1003900049442D49005049442D50005049442D50A6
:1003A00000200220466163740020022046616374CD
:1003B000002002204D6178002002204D617800204D
:1003C00002204D696E002002204D696E004F666666
:1003D000004F6E20004F6666004F6E20004175741E
:1003E0006F74656D700046616E20737065656400A2
:1003F00046616E2073706565640042656400426505
:1004000064004E6F7A7A6C65004E6F7A7A6C650084
:10041000436F6E74726F6C0053746F7265206D65FC
:100420006D6F72790042656400426564004E6F7AB8
:100430007A6C65004E6F7A7A6C650046616E207347
:10044000706565640046616E207370656564005474
:10045000656D70657261747572650053746F726555
:10046000206D656D6F7279004265640042656400BD
:100470004E6F7A7A6C65004E6F7A7A6C65004661D1
:100480006E2073706565640046616E2073706565EB
:10049000640054656D7065726174757265004D6FAE
:1004A00076652061786973004D3830005377697440
:1004B000636820706F776572206F6E004D38310071
:1004C00053776974636820706F776572206F666612
:1004D00000436F6F6C646F776E0050726568656182
:1004E0007420414253005072656865617420504C1D
:1004F0004100473238004175746F20686F6D6500A8
:100500004D38340044697361626C652073746570A2
:1005100070657273004D61696E004D6F76652030B5
:100520002E316D6D004D6F766520316D6D004D6F14
:1005300076652031306D6D005072657061726500B6
:100540004578747275646572004D6F7665205A0047
:100550004D6F76652059004D6F76652058004D6FC0
:100560007665206178697300457874727564657288
:10057000005A00590058004D363030004368616E13
:1005800067652066696C616D656E7400466C6F7797
:1005900000466C6F770046616E207370656564007D
:1005A00046616E2073706565640042656400426553
:1005B00064004E6F7A7A6C65004E6F7A7A6C6500D3
:1005C0005370656564005370656564004D61696EC4
:1005D00000436172642072656D6F766564004361EB
:1005E000726420696E736572746564004572726F1F
:1005F000723A004572723A204D415854454D502090
:100600004245440054656D70657261747572652071
:1006100068656174656420626564207377697463DA
:10062000686564206F66662E204D415854454D50D4
:1006300020747269676765726564202121004572C4
:10064000723A204D494E54454D50003A2045787439
:100650007275646572207377697463686564206F6E
:1006600066662E204D494E54454D50207472696780
:1006700067657265642021004572723A204D4158C9
:1006800054454D50003A2045787472756465722067
:100690007377697463686564206F66662E204D41C8
:1006A0005854454D502074726967676572656420BF
:1006B0002100202D20496E76616C69642065787474
:1006C0007275646572206E756D62657220210070AE
:1006D000012C0190012701B0012201C0011D01F090
:1006E0000118011002130130020E0160020901908D
:1006F000020401C002FF000003FA004003F500807D
:1007000003F000D003EB002004E6007004E100E0F9
:1007100004DC004005D700C005D2004006CD00D063
:1007200006C8008007C3003008BE00F008B900C04A
:1007300009B400B00AAF00B00BAA00D00CA50000AD
:100740000EA000500F9B00C01096005012910000A8
:10075000148C00C0158700B0178200B0197D00D03E
:100760001B7800001E730040206E0090226900F08C
:1007700024640040275F0090295A00E02B550010A8
:100780002E500020304B0010324600E033410090E4
:10079000353C001037370070383200A0392D00B0DA
:1007A0003A2800A03B2300603C1E00103D19009039
:1007B0003D1400103E0F00703E0A00C03E050000D0
:1007C0003F00006563686F3A0048656174696E6751
:1007D000206661696C656400504944204175746FFE
:1007E00074756E652066696E697368656421205052
:1007F000757420746865204B702C204B6920616EE5
:1008000064204B6420636F6E7374616E747320692F
:100810006E746F20436F6E66696775726174696F7D
:100820006E2E6800504944204175746F74756E6572
:10083000206661696C6564212074696D656F7574EB
:100840000020403A006F6B20543A006F6B20423A10
:1008500000504944204175746F74756E652066615F
:10086000696C6564212054656D7065726174757280
:100870006520746F6F206869676800204B643A20B8
:1008800000204B693A2000204B703A200020436C36
:10089000617369632050494420002054753A200058
:1008A000204B753A2000206D61783A2000206D6958
:1008B0006E3A200020643A200020626961733A2079
:1008C000001000C90210012C014001220170011822
:1008D00001B0010E01F00104015002FA00B002F073
:1008E000003003E600D003DC009004D2007005C89D
:1008F00000A006BE000008B400B009AA00D00BA0FA
:1009000000600E960060118C00001582002019789E
:1009100000C01D6E00A0226400B0275A00902C5029
:100920000000314600E0343C0010383200903A2894
:1009300000603C1E00A03D1400803E0A00203F00E5
:100940000045313A200045303A20005A3A200059FB
:100950003A2000583A20004D53312C4D533220504C
:10096000696E730A0024F404D9201BC40C5C0E9831
:1009700004C4095F0265077101F405F900FB04B3C3
:100980000048048700C1036900580355000303456C
:1009900000BE023A008402310053022A00290225D7
:1009A0000004022000E4011C00C8011900AF011777
:1009B00000980114008401130071011000610110FE
:1009C0000051010E0043010D0036010B002B010BFD
:1009D0000020010B00150109000C010900030108AA
:1009E00000FB000800F3000800EB000700E400062D
:1009F00000DE000600D8000600D2000600CC00058C
:100A000000C7000500C2000500BD000400B90004D5
:100A100000B5000400B1000400AD000400A900040A
:100A200000A5000300A20003009F0004009B000338
:100A3000009800030095000200930003009000035B
:100A4000008D0002008B0003008800020086000277
:100A50000084000300810002007F0002007D00028C
:100A6000007B00020079000200770001007600029E
:100A7000007400020072000100710002006F0002A9
:100A8000006D0001006C0002006A000100690002B4
:100A900000670001006600010065000100640002BB
:100AA000006200010061000100600001005F0002BF
:100AB000005D0001005C0001005B0001005A0001C4
:100AC00000590001005800010057000100560001C4
:100AD00000550001005400010053000000530001C4
:100AE000005200010051000100500001004F0001C0
:100AF000004E0000004E0001004D0001004C0001BE
:100B0000004B0000004B0001004A000100490001B9
:100B100000480000004800010047000100460000B6
:100B200000460001004500000045000100440001AE
:100B300000430000004300010042000000420001A9
:100B4000004100000041000100400001003F0000A2
:100B5000003F0001003E0000003E0001003D00009B
:100B6000003D0001003C0000003C0000003C000192
:100B7000003B0000003B0001003A0000003A000189
:100B80000039000000390001003800000038000082
:100B90000038000100370000003700010036000077
:100BA000003600000036000100350000003500006E
:100BB0000035000100340000003400000034000162
:100BC0000033000000330000003300010032000059
:100BD000003200000032000100310000003100004E
:100BE0000031000100300000003000000030000142
:100BF000002F0000002F0000002F0000002F000138
:100C0000002E0000002E0000002E0001002D00002C
:100C1000002D0000002D0000002D0001002C000020
:100C2000002C0000002C0000002C0001002B000014
:100C3000002B0000002B0000002B0001002A000008
:100C4000002A0000002A0000002A000100290000FC
:100C500000290000002900000029000000290001EF
:100C600000280000002800000028000000280000E4
:100C700000280001002700000027000000270000D6
:100C800000270000002700010026000000260000C9
:100C900000260000002600000026000100250000BC
:100CA00000250000002500000025000000250000B0
:100CB00000250001002400000024000000240000A2
:100CC0000024000000240001002300000023000095
:100CD0000023000000230000002300000023000088
:100CE000002300010022000000220000002200007A
:100CF000002200000022000000220001002100006C
:100D0000002100000021000000210000002100005F
:100D10000021000000210001002000000020000050
:100D20000020000000200000002000000020000043
:100D30000020000000200001001F0000001F000034
:100D4000001F0000001F0000001F0000001F000027
:100D5000001F0001001E0000001E0000001E000019
:100D6000001E00000024F4D43050C38E20C2A240E4
:100D700017828B7011127A910D816CD90AA861E1EA
:100D800008C7586607615143061E4B5D05C145A75C
:100D9000041A411104093D9803713931034036DBCF
:100DA0000265339102D4305402802E1D02632CEE72
:100DB00001752AC501B028A001102781018F256483
:100DC000012B244B01E0223401AC211F018D200DA9
:100DD00001801FFC00841EED00971DDF00B81CD2AF
:100DE00000E61BC600201BBC00641AB200B219A8A2
:100DF000000A19A0006A189900D117910040178BBA
:100E000000B516840031167E00B31579003A1573CB
:100E100000C7146F0058146A00EE1366008813634D
:100E20000025135E00C7125B006C125700151254A8
:100E300000C111510070114F0021114B00D6104913
:100E4000008D1047004610440002104200C00F40C1
:100E500000800F3E00420F3C00060F3B00CB0E38D7
:100E600000930E37005C0E3500270E3400F30D3270
:100E700000C10D3100900D3000600D2E00320D2D9F
:100E800000050D2C00D90C2B00AE0C2900850C2977
:100E9000005C0C2700350C27000E0C2600E80B2404
:100EA00000C40B2400A00B23007D0B23005A0B2150
:100EB00000390B2100180B2000F80A1F00D90A1E68
:100EC00000BB0A1E009D0A1D00800A1D00630A1C4B
:100ED00000470A1B002C0A1B00110A1A00F7091A06
:100EE00000DD091900C4091900AB0919009209179E
:100EF000007B091800630917004C09160036091613
:100F000000200916000A091500F5081500E008146C
:100F100000CC081400B8081400A4081400900813AA
:100F2000007D0812006B08130058081200460812D2
:100F300000340811002308110012081100010811E3
:100F400000F0071000E0071000D0071000C00710E5
:100F500000B0070F00A107100091070E0083070FD4
:100F60000074070F0065070E0057070E0049070EB3
:100F7000003B070D002E070E0020070D0013070D84
:100F80000006070D00F9060C00ED060D00E0060C4A
:100F900000D4060C00C8060C00BC060C00B0060C01
:100FA00000A4060B0099060C008D060B0082060BB0
:100FB0000077060B006C060B0061060A0057060B53
:100FC000004C060A0042060A0038060A002E060AED
:100FD0000024060A001A060A001006090007060A7D
:100FE00000FD050900F4050900EB050900E205090B
:100FF00000D9050900D0050900C7050900BE05098B
:1010000000B5050800AD050800A50509009C050808
:1010100000940508008C050800840508007C05087C
:1010200000740508006C050700650508005D0507EC
:1010300000560508004E0507004705070040050853
:101040000038050700310507002A050700230507BA
:10105000001C050600160507000F05070008050619
:101060000002050700FB040600F5040700EE040675
:1010700000E8040600E2040700DB040600D50406CD
:1010800000CF040600C9040600C3040600BD040620
:1010900000B7040600B1040500AC040600A604066F
:1010A00000A00405009B04060095040500900406BA
:1010B000008A04050085040500800406007A040502
:1010C0000075040500700405006B04050066040546
:1010D00000610405005C0405005704050052040586
:1010E000004D04050048040500430405003E0404C7
:1010F000003A04050035040500300404002C040502
:101100000027040400230405001E0404001A04043C
:101110000016040500110404000D04040009040570
:10112000000404040000040400FC030400F80304A9
:1011300000F4030400F0030400EC030400E80304DB
:1011400000E4030400E0030400DC030400D803040B
:1011500000D4030400D0030400CC030400C803033C
:1011600000C50303006563686F3A00656E647374BD
:101170006F7073206869743A205A00205A3A0065EB
:101180006E6473746F7073206869743A205900201C
:10119000593A00656E6473746F7073206869743AAD
:1011A00020580020583A00656E6473746F70732085
:1011B0006869743A20006563686F3A0020746F6F45
:1011C000206C6F6E6720657874727573696F6E201E
:1011D00070726576656E7465640020636F6C642060
:1011E000657874727573696F6E2070726576656E5E
:1011F000746564004D383420582059205A20450029
:101200006563686F3A0043616E6E6F7420656E743B
:101210006572207375626469723A20004D32340041
:101220004D3233202573006175746F25692E670078
:101230004572726F723A006572726F7220777269CE
:1012400074696E6720746F2066696C65004E6F74F8
:10125000205344207072696E74696E67002F0053CA
:1012600044207072696E74696E67206279746520BB
:10127000002E0044656C6574696F6E206661696C50
:1012800065642C2046696C653A200046696C6520CF
:1012900064656C657465643A002E006F70656E203D
:1012A0006661696C65642C2046696C653A2000575C
:1012B000726974696E6720746F2066696C653A2084
:1012C000002E006F70656E206661696C65642C206D
:1012D00046696C653A20002E006F70656E2066616D
:1012E000696C65642C2046696C653A200046696C1F
:1012F000652073656C6563746564002053697A6565
:101300003A200046696C65206F70656E65643A200E
:10131000002E006F70656E206661696C65642C201C
:1013200046696C653A20004E6F7720667265736877
:101330002066696C653A20004E6F7720646F696E95
:10134000672066696C653A20002220706F73002266
:1013500020706172656E743A2200535542524F55A7
:1013600054494E452043414C4C207461726765746A
:101370003A2200747279696E6720746F2063616C21
:101380006C207375622D67636F64652066696C6598
:1013900073207769746820746F6F206D616E792097
:1013A0006C6576656C732E204D4158206C657665B2
:1013B0006C2069733A0053442063617264206F6B40
:1013C000006F70656E526F6F74206661696C656442
:1013D00000766F6C756D652E696E69742066616943
:1013E0006C656400534420696E6974206661696CA1
:1013F000007C3C3E5E2B3D3F2F5B5D3B2C2A225CFC
:10140000006563686F3A004572726F723A00535418
:101410004F505045442E20005072696E7465722002
:1014200073746F707065642064756520746F2065D7
:1014300072726F72732E2046697820746865206519
:1014400072726F7220616E6420757365204D393938
:101450003920746F20726573746172742E20285461
:10146000656D70657261747572652069732072654F
:101470007365742E205365742069742061667465E9
:10148000722072657374617274696E6729004B49CA
:101490004C4C45442E20005072696E746572206871
:1014A000616C7465642E206B696C6C282920636103
:1014B0006C6C656421006F6B00526573656E643AF5
:1014C00020002200556E6B6E6F776E20636F6D6D1E
:1014D000616E643A2022004368616E676520666928
:1014E0006C616D656E74007A5F6D61783A20007A88
:1014F0005F6D696E3A2000795F6D61783A200078FF
:101500005F6D61783A2000205A3A0020593A002055
:10151000436F756E7420583A200020453A00205AD7
:101520003A0020593A00583A004649524D57415224
:10153000455F4E414D453A4D61726C696E205631A2
:101540003B20537072696E7465722F6772626C20F3
:101550006D617368757020666F722067656E3620E6
:101560004649524D574152455F55524C3A68747442
:1015700070733A2F2F6769746875622E636F6D2FD1
:101580004572696B5A616C6D2F4D61726C696E2F7B
:101590002050524F544F434F4C5F56455253494F82
:1015A0004E3A312E30204D414348494E455F545903
:1015B00050453A4B6F7373656C20455854525544EF
:1015C00045525F434F554E543A3120555549443AA0
:1015D00030303030303030302D303030302D303011
:1015E00030302D303030302D303030303030303001
:1015F000303030300A004B6F7373656C204F666675
:101600002E004B6F7373656C2072656164792E00D8
:1016100042656420646F6E652E0020423A002045CA
:101620003A00543A004265642048656174696E6707
:101630002E0048656174696E6720646F6E652E00C8
:1016400020573A0020453A00543A004865617469D1
:101650006E672E2E2E002042403A0020403A002095
:101660002F003A00205400202F0020423A00202F63
:10167000006F6B20543A002569206D696E2C20257F
:10168000692073656300456E642066696C65206C33
:1016900069737400426567696E2066696C65206CC9
:1016A000697374004E6F206D6F76652E00526573FE
:1016B000756D696E67207072696E74005761697428
:1016C00020666F7220757365722E2E2E000A002020
:1016D0005A3A200020593A200020583A200042650A
:1016E0006400536C6565702E2E2E00010101000010
:1016F00020430000204300004D430000A0400000B4
:10170000A0400000A0400000000000000000000019
:101710004D430000A0C20000A0C200000000000075
:10172000A0420000A04200004D430A00207A3A2067
:101730000020793A200020783A2000426564002099
:1017400000256920686F757273202569206D696EA8
:101750007574657300446F6E65207072696E74698C
:101760006E672066696C650053544F505045442E97
:1017700020005072696E7465722073746F707065AA
:10178000642064756520746F206572726F72732EA9
:101790002046697820746865206572726F722061D6
:1017A0006E6420757365204D39393920746F20724D
:1017B0006573746172742E202854656D7065726152
:1017C000747572652069732072657365742E205379
:1017D0006574206974206166746572207265737423
:1017E000617274696E6729006F6B004E6F204C69DF
:1017F0006E65204E756D626572207769746820632E
:101800006865636B73756D2C204C617374204C6933
:101810006E653A20004E6F20436865636B73756D8B
:101820002077697468206C696E65206E756D6265DD
:10183000722C204C617374204C696E653A200063F1
:101840006865636B73756D206D69736D6174636832
:101850002C204C617374204C696E653A20004C69F1
:101860006E65204E756D626572206973206E6F74AF
:10187000204C617374204C696E65204E756D6265F5
:10188000722B312C204C617374204C696E653A20A8
:10189000004D31313000446F6E6520736176696EA2
:1018A000672066696C652E006F6B004D3239002031
:1018B00020506C616E6E6572427566666572427923
:1018C0007465733A20002046726565204D656D6F22
:1018D00072793A200041756720323220323032303E
:1018E00000436F6D70696C65643A2000286A63720A
:1018F0006F63686F6C6C2C204D696E69204B6F7341
:1019000073656C2900207C20417574686F723A20E1
:101910000041756720323220323032302031343A83
:1019200031333A323100204C617374205570646158
:101930007465643A2000312E302E30004D61726C97
:10194000696E0020536F667477617265205265730B
:10195000657400205761746368646F672052657313
:101960006574002042726F776E206F757420526527
:10197000736574002045787465726E616C205265E1
:1019800073657400506F776572557000737461727F
:1019900074002200656E717565696E6720220022F1
:1019A00000656E717565696E672022006563686FFA
:1019B0003A0048617264636F6465642044656661DF
:1019C000756C742053657474696E6773204C6F6115
:1019D0006465640053746F72656420736574746920
:1019E0006E67732072657472696576656400204461
:1019F000002049002020204D333031205000504934
:101A0000442073657474696E67733A0020204D3208
:101A100031312053006265645F6C6576656C5F638D
:101A20006F6D70656E736174696F6E5F666163740C
:101A30006F7220283330307E383030293A00205AF7
:101A40000020590020204D363636205800456E645F
:101A500073746F702061646A757374656D656E74FC
:101A600020286D6D293A00205A0020590020204D71
:101A7000323036205800486F6D65206F666673659A
:101A80007420286D6D293A00204500205A00205806
:101A90000020420020540020204D323035205300D9
:101AA000416476616E636564207661726961626C1F
:101AB00065733A20533D4D696E20666565647261B9
:101AC000746520286D6D2F73292C20543D4D696E4F
:101AD0002074726176656C206665656472617465F8
:101AE00020286D6D2F73292C20423D6D696E696D24
:101AF000756D207365676D656E742074696D652002
:101B0000286D73292C20583D6D6178696D756D20A5
:101B10005859206A65726B20286D6D2F73292C200F
:101B2000205A3D6D6178696D756D205A206A657225
:101B30006B20286D6D2F73292C2020453D6D617819
:101B4000696D756D2045206A65726B20286D6D2F5B
:101B500073290020540020204D323034205300419E
:101B60006363656C65726174696F6E3A20533D61A1
:101B70006363656C65726174696F6E2C20543D728D
:101B800065747261637420616363656C657261740E
:101B9000696F6E00204500205A0020590020204D1A
:101BA0003230312058004D6178696D756D20416388
:101BB00063656C65726174696F6E20286D6D2F733B
:101BC00032293A00204500205A0020590020204D9B
:101BD0003230332058004D6178696D756D2066652F
:101BE0006564726174657320286D6D2F73293A00E6
:101BF000204500205A0020590020204D393220581D
:101C00000053746570732070657220756E69743A44
:101C10000053657474696E67732053746F726564E2
:101C20000000002100240027002A002D003000338E
:101C30000001010000040107010A01000022002543
:101C40000028002B002E00310034000201000005A6
:101C50000108010B01000020002300260029002CB0
:101C6000002F0032000001000003010601090105F8
:101C7000050505070508080808020202020A0A0805
:101C8000080404040401010101010101010303032B
:101C90000303030303040707070C0C0C0C0C0C0CC8
:101CA0000C0202020206060606060606060B0B0BCF
:101CB0000B0B0B0B0B01021020200808102040100A
:101CC0002040800201020108040201010204081000
:101CD000204080804020100804020180040201801E
:101CE0004020100804020108040201010204081047
:101CF00020408001020408102040800000090A02F0
:101D0000080B0C0D07060304010000000000000092
:101D100000000000000000000000000000000000C3
:101D20000000000000000011100F00000000000083
:101D300000000000000000000000000000000000A3
:101D40000002494E46494E4954594E414ECDCCCCE5
:101D50003D0AD7233C17B7D13877CC2B329595E67F
:101D6000241FB14F0A000020410000C84200401C5F
:101D70004620BCBE4CCA1B0E5AAEC59D7400A84E70
:101D8000B6A092D2D1DEB1A011241FBECFEFD1E216
:101D9000DEBFCDBF00E00CBF14E0A0E0B2E0ECE895
:101DA000FEED01E00BBF02C007900D92A43EB1070B
:101DB000D9F71BBE13E1A4EEB4E001C01D92A23F0F
:101DC000B107E1F71DE1C6E8DDE104C02297FE019D
:101DD0000E94ECEECE37D107C9F70E947DE90C9442
:101DE0003AEF0C940000A0E0B0E0E9EFFEE00C94C4
:101DF00009EFEC015B016115710519F0FB0191839D
:101E00008083F9908F2D90E00E94F0EE892BC9F726
:101E1000FDE2FF1621F4F990EE24E39405C02BE2D5
:101E2000F21609F4F990EE248E0101501040C80119
:101E300062E47DE143E050E072D2892BF9F48E0137
:101E40000E5F1F4FC80165E47DE145E050E067D2B9
:101E5000892B19F48E01095F1F4FA114B10419F0E9
:101E6000F50111830083E0FC04C070E090E080E89D
:101E700013C070E090E080E86FEF07C1C8016AE42A
:101E80007DE143E050E04BD2892B69F4A114B10409
:101E900029F470E090E080EC6FE7F7C02296F5013E
:101EA000D183C083F6CF8824992440E050E060E0DD
:101EB00070E0EF2DE053EA30A0F5F2E0EF2A8E2D2E
:101EC00090E09C0128703070E2FE06C0232B79F56B
:101ED0000894811C911C2BC0232B19F008948108B5
:101EE0009108DB01CA0112E0880F991FAA1FBB1FCE
:101EF0001A95D1F7480F591F6A1F7B1F440F551FB2
:101F0000661F771F4E0F511D611D711D483929E94C
:101F1000520729E9620729E1720748F084E0E82ABC
:101F200006C0EE3F31F4E3FC39C098E0E92AF990AD
:101F3000C0CFE53311F0E53189F529912D3219F43F
:101F4000E0E1EE2A05C02B3219F081E090E003C0F9
:101F5000299182E090E0E22FE053EA3018F0C81BAC
:101F6000D90B1CC020E030E0FCE020383F075CF4D7
:101F7000C901880F991F880F991F280F391F220F39
:101F8000331F2E0F311DE991E053EA3068F3E4FE70
:101F900003C0309521953F4F820E931ECE2CDD2439
:101FA000E1FE07C0A114B10421F02197F501D1830E
:101FB000C083CB01BA010E9455EB7B018C01F3E099
:101FC000CF22DD2423E0C216D10421F417FB1095A3
:101FD00017F9109557016801C801B70120E030E0FA
:101FE00040E050E00E94B5EA882309F44AC097FE19
:101FF0000DC021E6E22E2DE1F22E909481949108FD
:102000009394C0E2D0E000E010E012C099E7E92E1E
:102010009DE1F92EF6CFF701259135914591549127
:10202000C601B5010E9495ED5B016C018C1A9D0AF9
:102030008C169D0684F7D595C7950F5F1F4F063008
:10204000110529F08CEF9FEFE80EF91EF1CFC501C5
:10205000D6017C018D018C2D880F8D2D881F8F3F1F
:1020600051F0C601B50120E030E040E050E00E94B0
:10207000B5EA882331F482E290E09093F1138093E3
:10208000F0137E2D9F2D802F612F272F392F482F62
:10209000562FB901CA01CDB7DEB7ECE00C9425EF9D
:1020A0002F923F925F926F927F928F929F92AF9208
:1020B000BF92CF92DF92EF92FF920F931F93CF9335
:1020C000DF938C011B01EA016115710519F0FB0119
:1020D00091838083209749F0CE010297839728F05F
:1020E00020E030E040E050E0F6C0F801A1908F0120
:1020F0008A2D90E00E94F0EE892BB9F7FDE2AF1631
:1021000031F4F801A1908F015524539407C0FBE2EC
:10211000AF1619F4F801A1908F015524209719F0FA
:10212000C031D105C1F4F0E3AF1679F4F801808134
:10213000883711F0883549F4F801A1800E5F1F4FF0
:10214000F2E05F2AC0E1D0E006C0209721F480E3EE
:10215000A816E9F427C0C830D10531F1C930D1053E
:1021600024F4C230D10531F50CC0CA30D10589F054
:10217000C031D105F9F4C12CD12CE12CB8E0FB2EF3
:1021800028C0C12CD12CE12CA0E4FA2E22C0CAE038
:10219000D0E0FCECCF2EFCECDF2EFCECEF2EFCE0D4
:1021A000FF2E17C0C8E0D0E0C12CD12CE12CE0E11B
:1021B000FE2E0FC09E01442737FD4095542F60E04E
:1021C00070E080E090E80E94ADEEC901DA016C0198
:1021D0007D0120E030E040E050E060E03E018824F6
:1021E00077FC8094982C70EDB72EBA0CE9E0EB15D3
:1021F00070F48A2D81548A3118F499ECB92E06C0F6
:102200008A2D81568A3150F589EAB82EBA0C8B2D69
:1022100090E08C179D0714F56F3FE1F0C216D306CE
:10222000E406F506B0F0CA01B901A40193010E94C9
:1022300067EE9B01AC012B0D311D411D511D21305D
:10224000F0E03F07F0E04F07F0E85F0710F461E0CF
:1022500001C06FEFF801A1908F01C5CF21143104A7
:1022600081F0662331F001501040F10111830083A9
:1022700008C051FE1AC002501040F10111830083C2
:1022800014C067FF12C050FC05C02FEF3FEF4FEFA7
:102290005FE704C020E030E040E050E882E290E0F8
:1022A0009093F1138093F01316C050FE08C0509520
:1022B0004095309521953F4F4F4F5F4F0CC057FFD2
:1022C0000AC082E290E09093F1138093F0132FEF15
:1022D0003FEF4FEF5FE7B901CA01DF91CF911F9147
:1022E0000F91FF90EF90DF90CF90BF90AF909F90B5
:1022F0008F907F906F905F903F902F900895FB019B
:10230000DC0105900D920020E1F70895FC01059095
:102310000020E9F7809590958E0F9F1F0895FB018F
:10232000DC014150504088F08D9181341CF08B3598
:102330000CF4805E659161341CF06B350CF4605ECA
:10234000861B611171F3990B0895881BFCCFFB016B
:10235000DC014150504048F005900D920020C9F733
:1023600001C01D9241505040E0F70895FB01559186
:102370005523A9F0BF01DC014D9145174111E1F74B
:1023800059F4CD010590002049F04D9140154111BF
:10239000C9F3FB014111EFCF81E090E0019708956F
:1023A000FB01DC0104C08D910190801921F44150A2
:1023B0005040C8F7881B990B0895FB01DC0102C04F
:1023C00001900D9241505040D8F70895FB01DC0177
:1023D0000D900020E9F7119701900D920020E1F790
:1023E0000895FC018191861721F08823D9F7992758
:1023F00008953197CF010895FB01DC0101900D9202
:102400000020E1F70895FB01DC014150504030F01D
:102410008D910190801919F40020B9F7881B990B50
:102420000895FB01DC014150504048F001900D92AD
:102430000020C9F701C01D9241505040E0F70895B7
:10244000AEE0B0E0E6E2F2E10C9411EF0E891F89F4
:102450008EE08C831A8309838FEF9FE79E838D83A1
:102460009E01265E3F4FCE010196688D798DA901B0
:102470000AD02F813885020F131FF80110822E9683
:10248000E4E00C942DEFABE0B0E0E9E4F2E10C9471
:1024900003EF3C012B015A01FC0117821682838154
:1024A00081FD03C06FEF7FEFB9C19AE0892E1E0155
:1024B0000894211C311CF3012381F20123FD859135
:1024C00023FF81912F01882309F4A5C1853239F4B6
:1024D00023FD859123FF81912F01853221F490E026
:1024E000B301B7D1E8CF982FFF24EE249924FFE160
:1024F000FF15D0F09B3269F09C3228F4903259F0ED
:10250000933291F40EC09D3249F0903369F441E06A
:1025100024C052E0F52A84E0F82A28C098E0F92A7D
:1025200025C0E0E1FE2A22C0F7FC29C0892F805394
:102530008A3070F4F6FE05C0989C902C1124980EF9
:1025400015C0E89CE02C1124E80EF0E2FF2A0EC032
:102550009E3229F4F6FC5FC140E4F42A07C09C36A1
:1025600019F450E8F52A02C0983649F4F20123FD27
:10257000959123FF91912F01992309F0B8CF892FCD
:102580008554833018F08052833038F444E050E0B2
:10259000A40EB51E5FE359830FC0933631F0933715
:1025A00079F0933509F052C01FC0F501808189830D
:1025B00042E050E0A40EB51E610101E010E011C040
:1025C000F501C080D180F6FC03C06FEF7FEF02C041
:1025D000692D70E042E050E0A40EB51EC6012ED178
:1025E0008C015FE7F52213C0F501C080D180F6FCB5
:1025F00003C06FEF7FEF02C0692D70E042E050E052
:10260000A40EB51EC6010FD18C0150E8F52AF3FEC9
:1026100006C018C080E290E0B3011BD1EA948E2D71
:1026200090E008171907B0F30DC0F601F7FC85918B
:10263000F7FE81916F0190E0B3010BD1E110EA94B4
:10264000015010400115110581F7E2C0943611F0D8
:10265000993661F5F7FE08C0F5012081318142818C
:10266000538184E090E00AC0F501808191819C0152
:10267000442737FD4095542F82E090E0A80EB91E04
:102680009FE6F92257FF09C0509540953095219556
:102690003F4F4F4F5F4FE0E8FE2ACA01B901A10149
:1026A0002AE030E002D1D82ED2183FC0953729F465
:1026B0001F2D1F7E2AE030E01DC01F2D197F9F3681
:1026C00061F0903720F4983509F0A5C00FC090371D
:1026D00039F0983709F09FC004C028E030E00AC004
:1026E000106114FD146020E130E004C014FD166098
:1026F00020E132E017FF08C0F5016081718182811D
:10270000938144E050E008C0F50180819181BC01D3
:1027100080E090E042E050E0A40EB51EA101C5D0DB
:10272000D82ED2188FE7F82EF122F6FE0BC05EEFFE
:10273000F522D91438F4F4FE07C0F2FC05C08FEE80
:10274000F82202C01D2D01C0192DF4FE0DC0FE019E
:10275000ED0DF11D8081803319F499EEF92208C046
:102760001F5FF2FE05C003C08F2D867809F01F5F42
:102770000F2DF3FC13C0F0FE0EC01E1510F09D2CA3
:102780000AC09D2C9E0C911A1E2D05C080E290E07F
:10279000B3015FD01F5F1E15C8F304C01E1510F4EF
:1027A000E11A01C0EE2404FF0EC080E390E0B30103
:1027B00050D002FF1BC001FD03C088E790E00EC0AF
:1027C00088E590E00BC0802F867881F001FF02C081
:1027D0008BE201C080E2F7FC8DE290E0B30139D0DA
:1027E00005C080E390E0B30134D09A94D914C8F3C3
:1027F000DA94F101ED0DF11D808190E0B30129D053
:10280000DD20B1F705C080E290E0B30122D0EA9468
:10281000EE20C9F750CEF30166817781CB012B966C
:10282000E2E10C941FEFFC01059061507040011033
:10283000D8F7809590958E0F9F1F0895FC016150E9
:10284000704001900110D8F7809590958E0F9F1FD2
:1028500008950F931F93CF93DF938C01EB018B812E
:1028600081FF1BC082FF0DC02E813F818C819D8125
:102870002817390764F4E881F9810193F983E88323
:1028800006C0E885F985802F1995892B31F48E8152
:102890009F8101969F838E8302C00FEF1FEFC801B7
:1028A000DF91CF911F910F910895FA01AA27283047
:1028B00051F1203181F1E8946F936E7F6E5F7F4F0D
:1028C0008F4F9F4FAF4FB1E03ED0B4E03CD0670F89
:1028D000781F891F9A1FA11D680F791F8A1F911DDC
:1028E000A11D6A0F711D811D911DA11D20D009F42C
:1028F00068943F912AE0269F11243019305D31936E
:10290000DEF6CF010895462F4770405D4193B3E056
:102910000FD0C9F7F6CF462F4F70405D4A3318F0FD
:10292000495D31FD4052419302D0A9F7EACFB4E0AE
:10293000A6959795879577956795BA95C9F7009766
:102940006105710508959B01AC010A2E0694579507
:10295000479537952795BA95C9F7620F731F841F5E
:10296000951FA01D08952F923F924F925F926F92F4
:102970007F928F929F92AF92BF92CF92DF92EF920F
:10298000FF920F931F93DF93CF93CDB7DEB72A97B4
:102990000FB6F894DEBF0FBECDBF9A878987DC01E2
:1029A0002D903D904D905C90139714968D919D9134
:1029B0000D90BC91A02D8D839E83AF83B887A98590
:1029C000BA8518968D919D910D90BC91A02D89830B
:1029D0009A83AB83BC83C201B1012CA13DA14EA15E
:1029E0005FA10E9495ED7B018C016D817E818F81BD
:1029F000988528A939A94AA95BA90E9495ED9B0150
:102A0000AC01C801B7010E94DCE97B018C0169813E
:102A10007A818B819C812CAD3DAD4EAD5FAD0E9426
:102A200095ED9B01AC01C801B7010E94DCE93B01B7
:102A30004C01C201B10128A539A54AA55BA50E9498
:102A400095ED7B018C016D817E818F8198852CA90C
:102A50003DA94EA95FA90E9495ED9B01AC01C8015B
:102A6000B7010E94DCE97B018C0169817A818B814D
:102A70009C8124962CAD3DAD4EAD5FAD24970E9458
:102A800095ED9B01AC01C801B7010E94DCE95B0137
:102A90006C01C201B10128A139A14AA15BA10E9428
:102AA00095ED7B018C016D817E818F8198852CA5B0
:102AB0003DA54EA55FA50E9495ED9B01AC01C80107
:102AC000B7010E94DCE97B018C0169817A818B81ED
:102AD0009C8128AD39AD4AAD5BAD0E9495ED9B015F
:102AE000AC01C801B7010E94DCE9E985FA85608381
:102AF000718382839383C301D40184839583A683E6
:102B0000B783C501D60180879187A287B3872A96AC
:102B10000FB6F894DEBF0FBECDBFCF91DF911F91EE
:102B20000F91FF90EF90DF90CF90BF90AF909F906C
:102B30008F907F906F905F904F903F902F9008956F
:102B4000EF92FF920F931F93DF93CF93CDB7DEB732
:102B50002C970FB6F894DEBF0FBECDBFECADFDAD28
:102B600080819181A281B381EEADFFADE080F180E3
:102B700002811381EAADFBAD208131814281538115
:102B800029833A834B835C838D839E83AF83B8878D
:102B9000E986FA860B871C878DB79EB784970FB698
:102BA000F8949EBF0FBE8DBFADB7BEB71196FE01A4
:102BB000769684E201900D928150E1F7CE01019664
:102BC000D2DE89819A81AB81BC81EAADFBAD808385
:102BD0009183A283B3838D819E81AF81B885ECAD53
:102BE000FDAD80839183A283B38389859A85AB856C
:102BF000BC85EEADFFAD80839183A283B3838DB797
:102C00009EB784960FB6F8949EBF0FBE8DBF2C96CC
:102C10000FB6F894DEBF0FBECDBFCF91DF911F91ED
:102C20000F91FF90EF900895FC0120E030E040E824
:102C30005FE3208331834283538380E090E0A0E010
:102C4000B0E084839583A683B78380879187A2872A
:102C5000B38784879587A687B787208B318B428B74
:102C6000538B848B958BA68BB78B808F918FA28F84
:102C7000B38F848F958FA68FB78F20A331A342A3E4
:102C800053A308951092F10408958091070590E0F0
:102C9000969587959695879581700895FC0120817A
:102CA000822F90E06AE070E00E949AEECB016AE029
:102CB00070E00E949AEE805D80933605822F90E04E
:102CC0006AE070E00E949AEE805D80933705109272
:102CD000380586E395E00895FC0160817181828169
:102CE000938120E030E040E251E40E9495ED0E94A3
:102CF00024EB9B0177FF02C08DE201C08BE2809341
:102D0000360537FF03C0309521953F4FC90168EE66
:102D100073E00E949AEECB016AE070E00E949AEEA6
:102D2000805D80933705C90164E670E00E949AEEE9
:102D3000CB016AE070E00E949AEE805D80933805D6
:102D4000C9016AE070E00E949AEECB016AE070E08F
:102D50000E949AEE805D809339058EE280933A0559
:102D6000C9016AE070E00E949AEE805D80933B05A5
:102D700010923C0586E395E00895EF92FF920F9341
:102D80001F93FC01608171818281938120E030E09A
:102D900048EC52E40E9495ED0E9424EB7B018C01EB
:102DA00097FD12C020E137E240E050E00E94CFEEF4
:102DB000CA01B9012AE030E040E050E00E94CFEEC5
:102DC000605D6093360503C08DE28093360517FF82
:102DD00008C010950095F094E094E11CF11C011DD1
:102DE000111DC801B70128EE33E040E050E00E9419
:102DF000CFEECA01B9012AE030E040E050E00E9485
:102E0000CFEE605D60933705C801B70124E630E07E
:102E100040E050E00E94CFEECA01B9012AE030E064
:102E200040E050E00E94CFEE605D609338058EE296
:102E300080933905C801B7012AE030E040E050E056
:102E40000E94CFEECA01B9012AE030E040E050E034
:102E50000E94CFEE605D60933A05C801B7012AE099
:102E600030E040E050E00E94CFEE605D60933B05B3
:102E700010923C0586E395E01F910F91FF90EF9033
:102E80000895FC0180819181843691055CF064E6AF
:102E900070E00E949AEECB016AE070E00E949AEE28
:102EA000805D01C080E280933605808191818A3007
:102EB00091055CF06AE070E00E949AEECB016AE056
:102EC00070E00E949AEE805D01C080E28093370539
:102ED000808191816AE070E00E949AEE805D80932B
:102EE00038051092390586E395E00895DF93CF9376
:102EF0000F920F92CDB7DEB7FC01608171818281A4
:102F000093810E9424EB7A836983CE010196B9DF15
:102F10000F900F90CF91DF910895FC0180819181F6
:102F20008436910534F164E670E00E949AEECB019C
:102F30006AE070E00E949AEE805D809336058081A1
:102F400091816AE070E00E949AEECB016AE070E045
:102F50000E949AEE805D80933705808191816AE0BE
:102F600070E00E949AEE805D8093380510923905DA
:102F700024C08A309105C4F06AE070E00E949AEEA5
:102F8000CB016AE070E00E949AEE805D8093360586
:102F9000808191816AE070E00E949AEE805D80936A
:102FA00037051092380509C06AE070E00E949AEE79
:102FB000805D809336051092370586E395E008958D
:102FC000EF92FF920F931F93FC01E080F18002814A
:102FD0001381C801B70120E030E040E050E00E94DA
:102FE000C3EC18161CF4C801B70103C0C801B7012F
:102FF00090580E9424EB7B018C0180E1E81687E267
:10300000F80680E0080780E01807A4F0C801B701BF
:1030100020E137E240E050E00E94CFEECA01B90162
:103020002AE030E040E050E00E94CFEE605D609327
:1030300036050CC080E28093360598EEE91693E0E1
:10304000F90690E0090790E01907A4F0C801B7015C
:1030500028EE33E040E050E00E94CFEECA01B90113
:103060002AE030E040E050E00E94CFEE605D6093E7
:10307000370508C08093370594E6E916F104010589
:103080001105A4F0C801B70124E630E040E050E0AB
:103090000E94CFEECA01B9012AE030E040E050E0E2
:1030A0000E94CFEE605D6093380508C080933805BC
:1030B0009AE0E916F10401051105A4F0C801B70171
:1030C0002AE030E040E050E00E94CFEECA01B901B2
:1030D0002AE030E040E050E00E94CFEE605D609377
:1030E000390502C080933905C801B7012AE030E0F4
:1030F00040E050E00E94CFEE605D60933A05109290
:103100003B0586E395E01F910F91FF90EF900895A6
:10311000EF92FF920F931F93FC0160817181828176
:10312000938120E030E040E251E40E9495ED0E945E
:1031300024EB97FF02C02DE201C02BE2209336055D
:103140007B018C0197FF08C010950095F094E094E6
:10315000E11CF11C011D111DC801B70120E137E27E
:1031600040E050E00E94CFEECA01B9012AE030E011
:1031700040E050E00E94CFEE605D60933705C801EB
:10318000B70128EE33E040E050E00E94CFEECA01E4
:10319000B9012AE030E040E050E00E94CFEE605DEF
:1031A00060933805C801B70124E630E040E050E004
:1031B0000E94CFEECA01B9012AE030E040E050E0C1
:1031C0000E94CFEE605D60933905C801B7012AE027
:1031D00030E040E050E00E94CFEECA01B9012AE0A1
:1031E00030E040E050E00E94CFEE605D60933A0531
:1031F0008EE280933B05C801B7012AE030E040E051
:1032000050E00E94CFEE605D60933C0510923D055A
:1032100086E395E01F910F91FF90EF900895EF9254
:10322000FF920F931F93FC016081718182819381D2
:1032300020E030E048EC52E40E9495ED0E9424EB3F
:1032400097FF02C02DE201C02BE2209336057B01DF
:103250008C0197FF08C010950095F094E094E11C54
:10326000F11C011D111DC801B70120E137E240E04A
:1032700050E00E94CFEECA01B9012AE030E040E000
:1032800050E00E94CFEE605D60933705C801B70142
:1032900028EE33E040E050E00E94CFEECA01B901D1
:1032A0002AE030E040E050E00E94CFEE605D6093A5
:1032B0003805C801B70124E630E040E050E00E9444
:1032C000CFEECA01B9012AE030E040E050E00E94B0
:1032D000CFEE605D609339058EE280933A05C801B8
:1032E000B7012AE030E040E050E00E94CFEECA0192
:1032F000B9012AE030E040E050E00E94CFEE605D8E
:1033000060933B05C801B7012AE030E040E050E09F
:103310000E94CFEE605D60933C0510923D0586E310
:1033200095E01F910F91FF90EF9008950F931F93D9
:10333000CF93DF93382FEB01142F022F82EF94E00D
:1033400060E0432F0E94D2E182EF94E0612F0E945F
:10335000B5E911E1FE016491662379F0112369F06A
:1033600082EF94E00E94B5E921961150F3CF82EFED
:1033700094E060E20E94B5E911501123C1F782EF99
:1033800094E0602F0E94B5E982EF94E060E20E9431
:10339000B5E9DF91CF911F910F9108950F93DF93BE
:1033A000CF9300D00F92CDB7DEB706B10295069548
:1033B0000695037000950170349B02602091090509
:1033C00030910A0540910B0550910C0529833A83F1
:1033D0004B835C830E9423E329813A814B815C818A
:1033E000261737074807590710F4329B04600093EB
:1033F00007059091070591708091070581FD926006
:1034000080910D05981729F19130B1F0913028F095
:10341000923041F09330E9F40AC0813079F0823083
:10342000C1F412C0882351F0833099F40DC082306A
:1034300029F0813071F408C0833021F48091E404D4
:103440008F5F05C0882329F48091E4048150809324
:10345000E40490930D050F900F900F900F90CF9173
:10346000DF910F910895CF93DF93EC0104C082EFB9
:1034700094E00E949CE1FE01219664916623B9F7D5
:10348000DF91CF910895EF92FF920F931F93DF93F7
:10349000CF93CDB7DEB728970FB6F894DEBF0FBE37
:1034A000CDBF609148057091490580914A05909182
:1034B0004B0520E030E040E05FE30E94DCE90E9441
:1034C00024EB7C836B8360914205709143058827D0
:1034D00077FD8095982F0E9457EB20E030E040E088
:1034E0005FE30E94DCE90E9424EB7E836D8382EF20
:1034F00094E060E040E00E94D2E182EF94E062E07C
:103500000E94B5E9CE010396BCDCBC0182EF94E0D9
:103510000E94D9E982EF94E06FE20E94B5E9CE0102
:103520000596FBDCBC0182EF94E00E94D9E982E4BD
:1035300091E099DF8D819E810A972CF482EF94E0CF
:1035400060E20E94B5E982EF94E06AE040E00E9408
:10355000D2E160914E0570914F0580915005909198
:10356000510520E030E040E05FE30E94DCE90E948A
:1035700024EB7C836B83609144057091450588271B
:1035800077FD8095982F0E9457EB20E030E040E0D7
:103590005FE30E94DCE90E9424EB7E836D8382EF6F
:1035A00094E060E00E94B5E9CE0103966ADCBC01BC
:1035B00082EF94E00E94D9E982EF94E06FE20E94EA
:1035C000B5E9CE010596A9DCBC0182EF94E00E942A
:1035D000D9E98FE391E047DF8D819E810A972CF432
:1035E00082EF94E060E20E94B5E982EF94E060E04F
:1035F00041E00E94D2E182EF94E068E50E94B5E9E3
:103600008AEF9FE073DCBC0182EF94E00E94D9E96D
:103610008CE391E028DF8EEF9FE068DCBC0182EF55
:1036200094E00E94D9E982EF94E06CE041E00E94CE
:10363000D2E182EF94E06AE50E94B5E982E090E190
:103640009CDBBC0182EF94E00E94D9E982EF94E018
:1036500060E042E00E94D2E182EF94E066E00E94E6
:10366000B5E98BED93E00DDCBC0182EF94E00E94A4
:10367000D9E982EF94E065E20E94B5E982EF94E037
:1036800067E042E00E94D2E189E391E0ECDE8091C4
:10369000680D882391F18091370F882311F1609193
:1036A000E10F7091E20F8091E30F9091E40F6115AB
:1036B000710581059105A9F06D597F4F8F4F9F4F7F
:1036C00024E630E040E050E00E94ADEE6091E90F6A
:1036D0007091EA0F8091EB0F9091EC0F0E94ADEE8C
:1036E00001C020E02F831886CE010796CADBBC01FB
:1036F00082EF94E00E94D9E903C085E391E0B3DE54
:1037000082EF94E065E20E94B5E982EF94E06EE01A
:1037100042E00E94D2E182EF94E067E00E94B5E9C6
:1037200080919C1090919D10A0919E10B0919F103F
:103730000097A105B105E1F10E9423E320E63AEEEE
:1037400040E050E00E94ADEE79018A0160919C104A
:1037500070919D1080919E1090919F1020E63AEEFE
:1037600040E050E00E94ADEEE21AF30AC7016CE3BC
:1037700070E00E9486EE6983CE0101968FDABC016B
:1037800082EF94E00E94D9E982EF94E06AE30E941C
:10379000B5E9C7016CE370E00E9486EE8A83CE0132
:1037A00002967CDABC0182EF94E00E94D9E903C062
:1037B0008FE291E058DE82EF94E060E043E00E9407
:1037C000D2E182EF94E068E573E00E94D9E928969F
:1037D0000FB6F894DEBF0FBECDBFCF91DF911F9122
:1037E0000F91FF90EF9008951F9382E080936F03F5
:1037F0000E9423E36C507E4F8F4F9F4F60930905CB
:1038000070930A0580930B0590930C05389A10E08D
:10381000409A84E690E00E948AE3409884E690E033
:103820000E948AE31F5F1A3099F71F9108958091D3
:103830001705882321F081508093170503C081E08C
:1038400080936F0380916F03882321F01CDE8AE050
:10385000809317058091070582FF0FC081E793E2EF
:1038600090936E0380936D0310920E0510920F05D6
:103870001092100510921105B7DF2091DB033091F3
:10388000DC032436310554F480910E0590910F0528
:10389000280F391F253631056CF41AC0253631053D
:1038A000BCF080910E0590910F05280F391F24362A
:1038B000310574F410920E0510920F051092100548
:1038C0001092110584E690E09093DC038093DB0373
:1038D0002091DB033091DC032436310589F480919B
:1038E0000E0590910F058B3091051CF0865A9F4F65
:1038F0000DC02FEF863F9207ACF482599F4F06C050
:1039000080910E0590910F05820F931F9093DC0319
:103910008093DB0310920E0510920F051092100594
:10392000109211058091DB039091DC030A9734F427
:103930008AE090E09093DC038093DB038091DB03CB
:103940009091DC03885E934034F087EE93E090938F
:10395000DC038093DB030895AF92BF92CF92DF9296
:10396000EF92FF920F931F9380910E0590910F0598
:10397000A0911005B091110581509048A040B04031
:1039800040F010920E0510920F0510921005109243
:10399000110560910E0570910F05809110059091B1
:1039A000110525E030E040E050E00E94ADEE7901E5
:1039B0008A018091080590E0A0E0B0E0E816F906E1
:1039C0000A071B0710F42093080500910805809151
:1039D000070590E09695879596958795FF24F39433
:1039E000F82210E033E1A32EB12CC12CD12CEE240F
:1039F000E394002379F580916F038823B9F08091D7
:103A00000E0590910F05A0911005B0911105059735
:103A1000A105B10528F4812F68E375E043E004C0F7
:103A2000812F68E375E040E223E080DCFF2009F4A9
:103A3000DBC080910E0590910F05A0911005B0910B
:103A400011050597A105B10508F0CEC0CDDE88E1CE
:103A500091E5BDC0013009F03DC080916F0388231E
:103A6000F1F060910E0570910F0580911005909115
:103A7000110525E030E040E050E00E94ADEE21303D
:103A800031054105510529F4812F6EE275E04EE3C1
:103A900004C0812F6EE275E040E22EE747DCFF2094
:103AA00009F4A2C060910E0570910F058091100578
:103AB0009091110525E030E040E050E00E94ADEE2D
:103AC000213031054105510509F08EC08DDE89E3B5
:103AD00090E27DC0023009F03DC080916F038823E1
:103AE000F1F060910E0570910F0580911005909195
:103AF000110525E030E040E050E00E94ADEE2230BC
:103B000031054105510529F4812F65E275E04EE349
:103B100004C0812F65E275E040E22EE707DCFF205C
:103B200009F462C060910E0570910F058091100537
:103B30009091110525E030E040E050E00E94ADEEAC
:103B4000223031054105510509F04EC04DDE8CE2B1
:103B500090E23DC0033009F047C080916F03882395
:103B6000F1F060910E0570910F0580911005909114
:103B7000110525E030E040E050E00E94ADEE23303A
:103B800031054105510529F4812F6AE175E04EE3C5
:103B900004C0812F6AE175E040E22EE7C7DBFF2019
:103BA00019F160910E0570910F05809110059091AB
:103BB000110525E030E040E050E00E94ADEE2330FA
:103BC00031054105510581F40FDE8FE190E29093BC
:103BD0006E0380936D0310920E0510920F051092E4
:103BE00010051092110538C080910E0590910F05B7
:103BF000A0911005B09111054497A105B10540F0C1
:103C0000A0920E05B0920F05C0921005D09211053A
:103C100060910E0570910F0580911005909111052E
:103C200025E030E040E050E00E94ADEE422F809170
:103C3000080590E0039630E08217930744F4435060
:103C400040930805E0926F03042F01501FEF1F5FA0
:103C5000143010F40F5FCDCE1F910F91FF90EF90B5
:103C6000DF90CF90BF90AF900895CF92DF92EF9208
:103C7000FF920F931F9380910E0590910F05A091D5
:103C80001005B091110581509048A040B04040F01F
:103C900010920E0510920F0510921005109211054A
:103CA00060910E0570910F0580911005909111059E
:103CB00025E030E040E050E00E94ADEE79018A015D
:103CC0008091080590E0A0E0B0E0E816F9060A0748
:103CD0001B0710F420930805F09008058091070554
:103CE00090E09695879596958795EE24E394E82243
:103CF00000E055E0D52ECC24C394FF2079F58091C7
:103D00006F038823B9F080910E0590910F05A09163
:103D10001005B09111050597A105B10528F4802F74
:103D20006EE575E043E004C0802F6EE575E040E28B
:103D300023E0FCDAEE2009F490C080910E0590910A
:103D40000F05A0911005B09111050597A105B105CA
:103D500008F083C049DD8CEA9CE10FC181E0F816D0
:103D600009F03DC080916F038823F1F060910E054A
:103D700070910F05809110059091110525E030E0BC
:103D800040E050E00E94ADEE213031054105510583
:103D900029F4802F67E575E04EE304C0802F67E5C6
:103DA00075E040E22EE7C2DAEE2009F456C06091D9
:103DB0000E0570910F05809110059091110525E079
:103DC00030E040E050E00E94ADEE21303105410589
:103DD000510509F042C008DD8AEC9DE4CEC022E026
:103DE000F216D9F580916F038823F1F060910E05EA
:103DF00070910F05809110059091110525E030E03C
:103E000040E050E00E94ADEE223031054105510501
:103E100029F4802F60E575E04EE304C0802F60E553
:103E200075E040E22EE782DAEE20B9F060910E05EF
:103E300070910F05809110059091110525E030E0FB
:103E400040E050E00E94ADEE2230310541055105C1
:103E500021F4CADC8CEE9CE490C060913205709134
:103E60003305809134059091350520E030E040E243
:103E700051E40E94B5EA88230CF08CC083E0F81668
:103E800009F03DC080916F038823F1F060910E0529
:103E900070910F05809110059091110525E030E09B
:103EA00040E050E00E94ADEE233031054105510560
:103EB00029F4802F69E475E04EE304C0802F69E4A3
:103EC00075E040E22EE732DAEE2009F465C0609139
:103ED0000E0570910F05809110059091110525E058
:103EE00030E040E050E00E94ADEE23303105410566
:103EF000510509F051C078DC8EE09CE43EC024E01E
:103F0000F21609F049C080916F038823F1F06091A7
:103F10000E0570910F05809110059091110525E017
:103F200030E040E050E00E94ADEE24303105410524
:103F3000510529F4802F60E475E04EE304C0802F22
:103F400060E475E040E22EE7F1D9EE2029F16091BE
:103F50000E0570910F05809110059091110525E0D7
:103F600030E040E050E00E94ADEE243031054105E4
:103F7000510591F439DC82E69BE490936E038093C3
:103F80006D0310920E0510920F05109210051092FD
:103F900011054EC013E001C015E060910E0570914F
:103FA0000F05809110059091110525E030E040E06B
:103FB00050E00E94ADEE812F90E0A0E0B0E0281725
:103FC00039074A075B0780F01D9DC0011124019746
:103FD000AA2797FDA095BA2F80930E0590930F0501
:103FE000A0931005B093110560910E0570910F0517
:103FF000809110059091110525E030E040E050E0FF
:104000000E94ADEE422F8091080590E0039630E0CB
:104010008217930744F4435040930805C0926F03FE
:10402000F42EFA940FEF0F5F043010F4F39465CE82
:104030001F910F91FF90EF90DF90CF9008958DEC3E
:104040009CECACECBDE38093320590933305A093D8
:104050003405B093350509CE80E090E0A0E8BFE3D9
:104060008093320590933305A0933405B0933505C2
:10407000FCCD80E090E0A0E2B1E480933205909323
:104080003305A0933405B0933505EFCD0F931F93FF
:10409000DF93CF93CDB7DEB76E970FB6F894DEBF40
:1040A0000FBECDBF00D000D0EDB7FEB731969E0158
:1040B0002F5F3F4FADB7BEB712963C932E9311972B
:1040C00020EB31E033832283958384830E94201286
:1040D0008E010B5F1F4FEDB7FEB736960FB6F89403
:1040E000FEBF0FBEEDBF08C0992787FD90950E94C7
:1040F000F8EED8018D938D01F80180818823A1F716
:10410000CE0101960E9485D18CEA91E00E940CD1EB
:1041100010920E0510920F051092100510921105C5
:1041200087E19CE190936E0380936D036E960FB6CA
:10413000F894DEBF0FBECDBFCF91DF911F910F91DD
:10414000089586E69DE00E948580109208050895F6
:104150007F928F929F92AF92BF92CF92DF92EF9217
:10416000FF920F931F93CF93DF9380916F03882368
:1041700009F057C28091070582FD53C266C21092B2
:104180000E0510920F051092100510921105609106
:104190000E0570910F05809110059091110525E095
:1041A00030E040E050E00E94ADEE79018A0180915C
:1041B000080590E0A0E0B0E0E816F9060A071B0742
:1041C00010F420930805E09008058091070590E021
:1041D0009695879596958795BB24B394B822FF242E
:1041E00077247394A82CAA94EE2089F580916F030C
:1041F0008823B9F080910E0590910F05A0911005CC
:10420000B09111050597A105B10528F48F2D67EA36
:1042100071E043E004C08F2D67EA71E040E223E0E3
:1042200085D8BB20A1F080910E0590910F05A0913B
:104230001005B09111050597A105B10540F4D4DA38
:1042400081E793E290936E0380936D03FAC08AEB4B
:104250009DE06AE67DE00E943D9480916A0D8F3278
:1042600011F401E028C021E0E21621F580916F03EE
:104270008823F1F060910E0570910F058091100573
:104280009091110525E030E040E050E00E94ADEE55
:10429000213031054105510529F48F2D63EA71E084
:1042A0004EE304C08F2D63EA71E040E220E23ED885
:1042B000BB2021F402E0CC24DD2461C160910E0515
:1042C00070910F05809110059091110525E030E067
:1042D00040E050E00E94ADEE21303105410551052E
:1042E00049F782DA2EDFB1C10E1509F044C16A2DFB
:1042F0006C1986E69DE00E94A38C8091920D9091AE
:104300006F03882309F4A6C0992309F478C060914B
:104310000E0570910F05809110059091110525E013
:1043200030E040E050E00E94ADEE802F90E0A0E051
:10433000B0E0281739074A075B0789F582EF94E058
:1043400060E04F2D0E94D2E182EF94E06EE30E9484
:10435000B5E982EF94E065E00E94B5E98091770DC0
:10436000882319F4CAE6DDE004C01092890DC7E77E
:10437000DDE012E16881662379F0112369F082EFB4
:1043800094E00E94B5E921961150F4CF82EF94E0B9
:1043900060E20E94B5E911501123C1F730C082EFED
:1043A00094E060E04F2D0E94D2E182EF94E060E261
:1043B0000E94B5E982EF94E065E00E94B5E9809142
:1043C000770D882319F4CAE6DDE004C01092890D48
:1043D000C7E7DDE012E16881662379F0112369F017
:1043E00082EF94E00E94B5E921961150F4CF82EF5C
:1043F00094E060E20E94B5E911501123C1F7BB209F
:1044000009F4B9C060910E0570910F0580911005F7
:104410009091110525E030E040E050E00E94ADEEC3
:10442000802F90E0A0E0B0E0281739074A075B072B
:1044300009F0A1C0D9D986E69DE06AE67DE00E9438
:10444000D88010920E0510920F0510921005109250
:104450001105FBC0992309F46EC060910E0570919F
:104460000F05809110059091110525E030E040E0A6
:1044700050E00E94ADEE802F90E0A0E0B0E0281761
:1044800039074A075B0761F582EF94E060E04F2D42
:104490000E94D2E182EF94E06EE30E94B5E9809140
:1044A000770D882319F4CAE6DDE004C010928A0D66
:1044B000C7E7DDE013E16881662379F0112369F035
:1044C00082EF94E00E94B5E921961150F4CF82EF7B
:1044D00094E060E20E94B5E911501123C1F72BC0AE
:1044E00082EF94E060E04F2D0E94D2E182EF94E0F1
:1044F00060E20E94B5E98091770D882319F4CAE63D
:10450000DDE004C010928A0DC7E7DDE013E16881A9
:10451000662379F0112369F082EF94E00E94B5E9F7
:1045200021961150F4CF82EF94E060E20E94B5E949
:1045300011501123C1F7BB20F1F060910E0570916D
:104540000F05809110059091110525E030E040E0C5
:1045500050E00E94ADEE802F90E0A0E0B0E0281780
:1045600039074A075B0739F43FD98AE69DE067E7D8
:104570007DE08CDD6AC00F5F0894C11CD11CC8149B
:10458000D90408F4B1CE60910E0570910F058091A9
:1045900010059091110525E030E040E050E00E94C8
:1045A000ADEE802F90E0A0E0B0E0281739074A0771
:1045B0005B0788F085E0089FC00111240197AA27B6
:1045C00097FDA095BA2F80930E0590930F05A093A9
:1045D0001005B093110560910E0570910F05809143
:1045E00010059091110525E030E040E050E00E9478
:1045F000ADEE422F8091080590E0039630E08217DF
:1046000093074CF443504093080570926F03E42ED7
:10461000EA94FF24FA94F39483E08F15B0F0E394C6
:10462000E3CD86E69DE00E94448C4C0180910E050E
:1046300090910F05A0911005B091110581509048FF
:10464000A040B04008F09BCDA2CDDF91CF911F914B
:104650000F91FF90EF90DF90CF90BF90AF909F9021
:104660008F907F900895CF93DF931092680D86E628
:104670009DE060E00E94AC810E94116287EB91E0B6
:104680000E940CD180916E06882301F110926E0673
:1046900080912910C82FD0E0CC0FDD1FCE5BDA4F00
:1046A00068817981882777FD8095982F0E9457EB44
:1046B0002091BF033091C0034091C1035091C203C8
:1046C0000E94C3EC181614F419821882DF91CF915E
:1046D000089586E69DE00C94798086E69DE00C9432
:1046E0008080CF92DF92EF92FF920F931F93809181
:1046F0000E0590910F05A0911005B0911105815004
:104700009048A040B04040F010920E0510920F0566
:10471000109210051092110560910E0570910F0511
:10472000809110059091110525E030E040E050E0C7
:104730000E94ADEE79018A018091080590E0A0E029
:10474000B0E0E816F9060A071B0710F420930805E5
:10475000F09008058091070590E0969587959695CD
:104760008795EE24E394E82200E0F5E0CF2EDD24E7
:10477000D394FF2071F580916F038823C1F080915D
:104780000E0590910F05A0911005B09111050597A8
:10479000A105B10528F4802F67E971E043E004C06A
:1047A000802F67E971E040E223E00E949619EE2035
:1047B00081F080910E0590910F05A0911005B091A8
:1047C00011050597A105B10520F40ED887E19CE1FC
:1047D00004C20E94B96A882329F48091680D882355
:1047E00009F456C281E0F81609F07EC080916F038B
:1047F0008823F9F060910E0570910F0580911005E6
:104800009091110525E030E040E050E00E94ADEECF
:10481000213031054105510529F4802F62E971E00D
:104820004EE304C0802F62E971E040E22EE70E946F
:104830009619EE2009F498C060910E0570910F054D
:10484000809110059091110525E030E040E050E0A6
:104850000E94ADEE213031054105510509F084C0BB
:104860000E94F41B8CEC9AE3B8C180916F038823FB
:10487000F9F060910E0570910F05809110059091EF
:10488000110525E030E040E050E00E94ADEE21301F
:1048900031054105510529F4802F6AE871E04EE3A6
:1048A00004C0802F6AE871E040E22EE70E9496196A
:1048B000EE2009F459C060910E0570910F058091AA
:1048C00010059091110525E030E040E050E00E9495
:1048D000ADEE213031054105510509F045C00E947A
:1048E000F41B88E191E579C122E0F216E9F58091A7
:1048F0006F038823F9F060910E0570910F05809188
:1049000010059091110525E030E040E050E00E9454
:10491000ADEE223031054105510529F4802F62E8C2
:1049200071E04EE304C0802F62E871E040E22EE7C0
:104930000E949619EE20C1F060910E0570910F054E
:10494000809110059091110525E030E040E050E0A5
:104950000E94ADEE223031054105510529F40E9437
:10496000F41B84E596E239C18091690D882309F42E
:10497000F4C08091370F882309F4CBC08091680D73
:10498000882309F442C083E0F81609F080C08091C2
:104990006F038823F9F060910E0570910F058091E7
:1049A00010059091110525E030E040E050E00E94B4
:1049B000ADEE233031054105510529F4802F66E71E
:1049C00071E04EE304C0802F66E771E040E220E230
:1049D0000E949619EE2009F40FC160910E057091A6
:1049E0000F05809110059091110525E030E040E021
:1049F00050E00E94ADEE233031054105510509F02C
:104A0000FBC00E94F41B69DE48C123E0F21609F0E6
:104A10003EC080916F038823F9F060910E0570917C
:104A20000F05809110059091110525E030E040E0E0
:104A300050E00E94ADEE233031054105510529F4C7
:104A4000802F69E671E04EE304C0802F69E671E0D3
:104A500040E220E20E949619EE2009F4CDC0609158
:104A60000E0570910F05809110059091110525E0BC
:104A700030E040E050E00E94ADEE233031054105CA
:104A8000510509F0B9C00E94F41B23DE06C184E081
:104A9000F81609F0B1C080916F038823F9F0609196
:104AA0000E0570910F05809110059091110525E07C
:104AB00030E040E050E00E94ADEE24303105410589
:104AC000510529F4802F6EE571E04EE304C0802F7C
:104AD0006EE571E040E220E20E949619EE2009F4B2
:104AE0008BC060910E0570910F058091100590911B
:104AF000110525E030E040E050E00E94ADEE2430AA
:104B000031054105510509F077C00E94F41BABDD6A
:104B1000C4C023E0F21609F06DC080916F038823B2
:104B200009F442C060910E0570910F058091100547
:104B30009091110525E030E040E050E00E94ADEE9C
:104B4000233031054105510521F4802F60E571E0E6
:104B500022C0802F60E571E023C083E0F81609F0E1
:104B600049C080916F038823F9F060910E05709120
:104B70000F05809110059091110525E030E040E08F
:104B800050E00E94ADEE233031054105510529F476
:104B9000802F65E471E04EE304C0802F65E471E08E
:104BA00040E22EE70E949619EE2021F160910E0559
:104BB00070910F05809110059091110525E030E06E
:104BC00040E050E00E94ADEE233031054105510533
:104BD00089F40E94F41B88EA90E290936E0380931C
:104BE0006D0310920E0510920F0510921005109291
:104BF000110553C014E001C015E060910E057091DD
:104C00000F05809110059091110525E030E040E0FE
:104C100050E00E94ADEE812F90E0A0E0B0E02817B8
:104C200039074A075B0780F01C9DC00111240197DA
:104C3000AA2797FDA095BA2F80930E0590930F0594
:104C4000A0931005B093110560910E0570910F05AA
:104C5000809110059091110525E030E040E050E092
:104C60000E94ADEE422F8091080590E0039630E05F
:104C70008217930744F4435040930805D0926F0382
:104C8000F42EFA940FEF0F5F043038F4F39471CDE3
:104C900021E0F21609F028CEE8CD1F910F91FF9088
:104CA000EF90DF90CF900895AF92BF92CF92DF92B6
:104CB000EF92FF920F931F9380910E0590910F0535
:104CC000A0911005B091110581509048A040B040CE
:104CD00040F010920E0510920F05109210051092E0
:104CE000110560910E0570910F058091100590914E
:104CF000110525E030E040E050E00E94ADEE790182
:104D00008A018091080590E0A0E0B0E0E816F9067D
:104D10000A071B0710F420930805009108058091ED
:104D2000070590E09695879596958795FF24F394CF
:104D3000F82210E0BDE1AB2EB12CC12CD12CEE2419
:104D4000E394002389F580916F038823C1F080915B
:104D50000E0590910F05A0911005B09111050597D2
:104D6000A105B10528F4812F60E072E043E004C0A2
:104D7000812F60E072E040E223E00E949619FF205C
:104D800009F465C180910E0590910F05A091100561
:104D9000B09111050597A105B10508F058C10E9411
:104DA000F41B81E793E241C0013009F04BC08091D0
:104DB0006F038823F9F060910E0570910F058091C3
:104DC00010059091110525E030E040E050E00E9490
:104DD000ADEE213031054105510529F4812F64EFF5
:104DE00071E04EE304C0812F64EF71E040E22EE7F2
:104DF0000E949619FF2009F42AC160910E05709156
:104E00000F05809110059091110525E030E040E0FC
:104E100050E00E94ADEE213031054105510509F009
:104E200016C10E94F41B88EF93E490936E03809365
:104E30006D0310920E0510920F051092100510923E
:104E400011053DC1023009F03FC080916F038823F6
:104E5000F9F060910E0570910F0580911005909109
:104E6000110525E030E040E050E00E94ADEE223038
:104E700031054105510529F4812F6DEE71E04EE3B6
:104E800004C0812F6DEE71E040E22EE70E9496197A
:104E9000FF2009F4DCC060910E0570910F05809130
:104EA00010059091110525E030E040E050E00E94AF
:104EB000ADEE223031054105510509F0C8C00E9410
:104EC000F41B8FEA98E2B1CF033009F03FC0809124
:104ED0006F038823F9F060910E0570910F058091A2
:104EE00010059091110525E030E040E050E00E946F
:104EF000ADEE233031054105510529F4812F60EED7
:104F000071E04EE304C0812F60EE71E040E220E2E8
:104F10000E949619FF2009F49AC060910E057091C5
:104F20000F05809110059091110525E030E040E0DB
:104F300050E00E94ADEE233031054105510509F0E6
:104F400086C00E94F41B0E944FD4B9C0043009F0FF
:104F50003FC080916F038823F9F060910E05709136
:104F60000F05809110059091110525E030E040E09B
:104F700050E00E94ADEE243031054105510529F481
:104F8000812F64ED71E04EE304C0812F64ED71E088
:104F900040E220E20E949619FF2009F458C0609177
:104FA0000E0570910F05809110059091110525E077
:104FB00030E040E050E00E94ADEE24303105410584
:104FC000510509F044C00E94F41B0E94A6DC77C082
:104FD0000530E9F580916F038823F9F060910E05A3
:104FE00070910F05809110059091110525E030E03A
:104FF00040E050E00E94ADEE2530310541055105FD
:1050000029F4812F63EC71E04EE304C0812F63EC3F
:1050100071E040E220E20E949619FF20C1F0609109
:105020000E0570910F05809110059091110525E0F6
:1050300030E040E050E00E94ADEE25303105410502
:10504000510529F40E94F41B0E94DBD638C08091E0
:105050000E0590910F05A0911005B09111054E9786
:10506000A105B10540F0A0920E05B0920F05C092C7
:105070001005D092110560910E0570910F05809179
:1050800010059091110525E030E040E050E00E94CD
:10509000ADEE422F8091080590E0039630E0821734
:1050A000930744F4435040930805E0926F03042FA4
:1050B00001501FEF1F5F143010F40F5F42CE1F919D
:1050C0000F91FF90EF90DF90CF90BF90AF90089539
:1050D000EF92FF920F931F93CF93DF93582FEB0123
:1050E000142FF22EE32EE22FF32FDF010D9000207C
:1050F000E9F7022F0A1B0E5E82EF94E060E0452F75
:105100000E94D2E182EF94E0612F0E94B5E9FE0196
:105110006491662349F0002339F082EF94E00E9405
:10512000B5E921960150F3CF82EF94E06AE30E9443
:10513000B5E906C082EF94E060E20E94B5E9015053
:105140000023C1F782EF94E06F2D7E2D0E94D9E9F4
:10515000DF91CF911F910F91FF90EF9008952F92C3
:105160003F924F925F926F927F928F929F92AF92F7
:10517000BF92CF92DF92EF92FF920F931F93DF9334
:10518000CF93CDB7DEB7A0970FB6F894DEBF0FBEB2
:10519000CDBF80910E0590910F05A0911005B091A3
:1051A000110581509048A040B04040F010920E058B
:1051B00010920F05109210051092110560910E05C6
:1051C00070910F05809110059091110525E030E058
:1051D00040E050E00E94ADEE79018A01809108051F
:1051E00090E0A0E0B0E0E816F9060A071B0710F40B
:1051F00020930805009108058091070590E0969599
:10520000879596958795FF24F394F82210E05DE149
:10521000C52ED12CCC0EDD1E49E1A42EB12CAC0E36
:10522000BD1E35E1832E912C8C0E9D1E21E1622E38
:10523000712C6C0E7D1E9DE0492E512C4C0E5D1E76
:1052400089E0282E312C2C0E3D1E002309F040C091
:1052500080916F038823C1F080910E0590910F0516
:10526000A0911005B09111050597A105B10528F48D
:10527000812F67E473E043E004C0812F67E473E0AB
:1052800040E223E00E949619FF2011F40C941E3591
:1052900080910E0590910F05A0911005B091110518
:1052A0000597A105B10510F00C941E350E94F41B62
:1052B00084E596E290936E0380936D0310920E0541
:1052C00010920F0510921005109211050C945D3587
:1052D000013009F08DC080916F03882339F160910E
:1052E0000E0570910F05809110059091110525E034
:1052F00030E040E050E00E94ADEE21303105410544
:10530000510551F485E290E10E94BD169C01812F68
:105310006EE373E04EE309C085E290E10E94BD16A2
:105320009C01812F6EE373E040E2D2DEFF2011F496
:105330000C941E3560910E0570910F05809110053B
:105340009091110525E030E040E050E00E94ADEE84
:10535000213031054105510511F00C941E350E9494
:10536000F41B80916D0390916E03909319058093C7
:10537000180580910E0590910F0590931B05809361
:105380001A0582E080936F0389EF91E490936E0396
:1053900080936D0385E393E090931D0580931C0536
:1053A00085E290E190931F0580931E0582E390E0D3
:1053B000A0E0B0E08093200590932105A093220502
:1053C000B093230588E893E1A0E0B0E08093240542
:1053D00090932505A0932605B0932705609125108D
:1053E0007091261080912710909128100C94ED3325
:1053F000023009F08DC080916F03882339F16091EC
:105400000E0570910F05809110059091110525E012
:1054100030E040E050E00E94ADEE22303105410521
:10542000510551F486E396E00E94E0179C01812F1C
:105430006FE273E04EE309C086E396E00E94E01756
:105440009C01812F6FE273E040E242DEFF2011F405
:105450000C941E3560910E0570910F05809110051A
:105460009091110525E030E040E050E00E94ADEE63
:10547000223031054105510511F00C941E350E9472
:10548000F41B80916D0390916E03909319058093A6
:10549000180580910E0590910F0590931B05809340
:1054A0001A0582E080936F0386E591E490936E0382
:1054B00080936D0389E293E090931D0580931C0512
:1054C00086E396E090931F0580931E0585E090E0AB
:1054D000A0E0B0E08093200590932105A0932205E1
:1054E000B09323058EED93E0A0E0B0E08093240517
:1054F00090932505A0932605B09327056091360665
:105500007091370680913806909139060C94CD320F
:10551000033009F08DC080916F03882339F16091C9
:105520000E0570910F05809110059091110525E0F1
:1055300030E040E050E00E94ADEE233031054105FF
:10554000510551F48EE396E00E9476179C01812F5D
:1055500060E273E04EE309C08EE396E00E947617A6
:105560009C01812F60E273E040E2B2DDFF2011F484
:105570000C941E3560910E0570910F0580911005F9
:105580009091110525E030E040E050E00E94ADEE42
:10559000233031054105510511F00C941E350E9450
:1055A000F41B80916D0390916E0390931905809385
:1055B000180580910E0590910F0590931B0580931F
:1055C0001A0582E080936F038CE992E490936E0356
:1055D00080936D0387E193E090931D0580931C05F4
:1055E0008EE396E090931F0580931E0581E090E086
:1055F000A0E0B0E08093200590932105A0932205C0
:10560000B09323058EED93E0A0E0B0E080932405F5
:1056100090932505A0932605B093270560913E063B
:1056200070913F0680914006909141060C9413358D
:10563000043009F08DC080916F03882339F16091A7
:105640000E0570910F05809110059091110525E0D0
:1056500030E040E050E00E94ADEE243031054105DD
:10566000510551F482E496E00E940F199C01812FAC
:105670006FE073E04EE309C082E496E00E940F19E8
:105680009C01812F6FE073E040E222DDFF2011F4E6
:105690000C941E3560910E0570910F0580911005D8
:1056A0009091110525E030E040E050E00E94ADEE21
:1056B000243031054105510511F00C941E350E942E
:1056C000F41B80916D0390916E0390931905809364
:1056D000180580910E0590910F0590931B058093FE
:1056E0001A0582E080936F0380E190E490936E034B
:1056F00080936D0387E093E090931D0580931C05D4
:1057000082E496E090931F0580931E058AE090E066
:10571000A0E0B0E08093200590932105A09322059E
:10572000B093230588EB92E8A1E0B0E080932405D4
:1057300090932505A0932605B09327056091420616
:105740007091430680914406909145060C94ED3388
:10575000053009F08DC080916F03882339F1609185
:105760000E0570910F05809110059091110525E0AF
:1057700030E040E050E00E94ADEE253031054105BB
:10578000510551F486E496E00E9476179C01812F22
:105790006FEF72E04EE309C086E496E00E94761750
:1057A0009C01812F6FEF72E040E292DCFF2011F448
:1057B0000C941E3560910E0570910F0580911005B7
:1057C0009091110525E030E040E050E00E94ADEE00
:1057D000253031054105510511F00C941E350E940C
:1057E000F41B80916D0390916E0390931905809343
:1057F000180580910E0590910F0590931B058093DD
:105800001A0582E080936F038CE992E490936E0313
:1058100080936D0387EF92E090931D0580931C05A4
:1058200086E496E090931F0580931E0581E090E04A
:10583000A0E0B0E08093200590932105A09322057D
:10584000B09323058EED93E0A0E0B0E080932405B3
:1058500090932505A0932605B093270560914606F1
:105860007091470680914806909149060C94133533
:10587000063009F08DC080916F03882339F1609163
:105880000E0570910F05809110059091110525E08E
:1058900030E040E050E00E94ADEE26303105410599
:1058A000510551F482E096E00E9476179C01812F09
:1058B00060EF72E04EE309C082E096E00E94761746
:1058C0009C01812F60EF72E040E202DCFF2011F4C6
:1058D0000C941E3560910E0570910F058091100596
:1058E0009091110525E030E040E050E00E94ADEEDF
:1058F000263031054105510511F00C941E350E94EA
:10590000F41B80916D0390916E0390931905809321
:10591000180580910E0590910F0590931B058093BB
:105920001A0582E080936F038CE992E490936E03F2
:1059300080936D0389EE92E090931D0580931C0582
:1059400082E096E090931F0580931E0581E090E031
:10595000A0E0B0E08093200590932105A09322055C
:10596000B093230587EE93E0A0E0B0E08093240598
:1059700090932505A0932605B09327056091020614
:105980007091030680910406909105060C941335DE
:10599000073009F08CC080916F03882339F1609142
:1059A0000E0570910F05809110059091110525E06D
:1059B00030E040E050E00E94ADEE27303105410577
:1059C000510551F486E096E00E9476179C01812FE4
:1059D00062EE72E04EE309C086E096E00E94761720
:1059E0009C01812F62EE72E040E272DBFF2011F435
:1059F0000C941E3560910E0570910F058091100575
:105A00009091110525E030E040E050E00E94ADEEBD
:105A1000273031054105510511F00C941E350E94C7
:105A2000F41B80916D0390916E0390931905809300
:105A3000180580910E0590910F0590931B0580939A
:105A40001A0582E080936F038CE992E490936E03D1
:105A500080936D038BED92E090931D0580931C0560
:105A600086E096E090931F0580931E0581E090E00C
:105A7000A0E0B0E08093200590932105A09322053B
:105A8000B093230587EE93E0A0E0B0E08093240577
:105A900090932505A0932605B093270560910606EF
:105AA000709107068091080690910906BCC70830DE
:105AB00009F08AC080916F03882339F160910E0547
:105AC00070910F05809110059091110525E030E04F
:105AD00040E050E00E94ADEE28303105410551050F
