:100000000C94150E0C94420E0C94420E0C94420E5D
:100010000C94420E0C94420E0C94420E0C94420E20
:100020000C94420E0C94420E0C94420E0C94420E10
:100030000C94420E0C94CDDE0C94420E0C94420EA5
:100040000C94420E0C9488880C94420E0C94420E30
:100050000C94420E0C94420E0C94A1900C940CDB68
:100060000C94420E0C94432B0C94420E0C94420EB2
:100070000C94420E0C94420E0C94420E0C94420EC0
:100080000C94420E0C94420E0C94420E0C94420EB0
:100090000C94420E0C94420E0C94420E0C9493D786
:1000A0000C94420E0C94420E0C94420E0C94420E90
:1000B0000C94420E0C94420E0C94420E0C94420E80
:1000C0000C94420E0C94420E0C94420E0C94420E70
:1000D0000C94420E0C94420E0C94420E0C94420E60
:1000E0000C94420E084AD73B3BCE016E84BCBFFD48
:1000F000C12F3D6C74319ABD56833DDA3D00C77FF8
:1001000011BED9E4BB4C3E916BAAAABE0000008090
:100110003F05A84CCDB2D44EB93836A9020C50B91F
:10012000918688083CA6AAAA2ABE000000803F4DFE
:10013000383420582059205A2045006563686F3AAA
:100140000043616E6E6F7420656E74657220737506
:10015000626469723A20004D3234004D32332025FA
:1001600073006175746F25692E67004572726F7236
:100170003A006572726F722077726974696E6720D7
:10018000746F2066696C65004E6F74205344207054
:1001900072696E74696E67002F0053442070726933
:1001A0006E74696E67206279746520002E00446564
:1001B0006C6574696F6E206661696C65642C20469D
:1001C000696C653A200046696C652064656C6574ED
:1001D00065643A002E006F70656E206661696C651B
:1001E000642C2046696C653A200057726974696E08
:1001F0006720746F2066696C653A20002E006F706E
:10020000656E206661696C65642C2046696C653A90
:1002100020002E006F70656E206661696C65642C2D
:100220002046696C653A200046696C652073656CF0
:100230006563746564002053697A653A20004669F5
:100240006C65206F70656E65643A20002E006F70DB
:10025000656E206661696C65642C2046696C653A40
:1002600020004E6F772066726573682066696C6542
:100270003A20004E6F7720646F696E672066696C64
:10028000653A20002220706F730022207061726531
:100290006E743A2200535542524F5554494E4520F0
:1002A00043414C4C207461726765743A2200747249
:1002B00079696E6720746F2063616C6C207375625E
:1002C0002D67636F64652066696C65732077697458
:1002D0006820746F6F206D616E79206C6576656C37
:1002E000732E204D4158206C6576656C2069733AF9
:1002F0000053442063617264206F6B006F70656E01
:10030000526F6F74206661696C656400766F6C75FE
:100310006D652E696E6974206661696C6564005351
:100320004420696E6974206661696C006563686F5A
:100330003A0048617264636F646564204465666175
:10034000756C742053657474696E6773204C6F61AB
:100350006465640053746F726564207365747469B6
:100360006E677320726574726965766564002044F7
:10037000002049002020204D3330312050005049CA
:10038000442073657474696E67733A00205A0020C4
:10039000590020204D363636205800456E6473745F
:1003A0006F702061646A757374656D656E74202862
:1003B0006D6D293A00205A0020590020204D32301E
:1003C00036205800486F6D65206F6666736574202F
:1003D000286D6D293A00204500205A002058002041
:1003E000420020540020204D32303520530041641B
:1003F00076616E636564207661726961626C6573B3
:100400003A20533D4D696E2066656564726174657E
:1004100020286D6D2F73292C20543D4D696E20745A
:10042000726176656C20666565647261746520280A
:100430006D6D2F73292C20423D6D696E696D756D50
:10044000207365676D656E742074696D6520286D15
:1004500073292C20583D6D6178696D756D20585950
:10046000206A65726B20286D6D2F73292C20205A0D
:100470003D6D6178696D756D205A206A65726B20DB
:10048000286D6D2F73292C2020453D6D6178696D95
:10049000756D2045206A65726B20286D6D2F73295C
:1004A0000020540020204D3230342053004163633B
:1004B000656C65726174696F6E3A20533D61636368
:1004C000656C65726174696F6E2C20543D72657441
:1004D0007261637420616363656C65726174696FD6
:1004E0006E00204500205A0020590020204D323057
:1004F000312058004D6178696D756D2041636365E9
:100500006C65726174696F6E20286D6D2F7332296E
:100510003A00204500205A0020590020204D32305A
:10052000332058004D6178696D756D20666565648E
:10053000726174657320286D6D2F73293A00204510
:1005400000205A0020590020204D393220580053F5
:10055000746570732070657220756E69743A00530B
:10056000657474696E67732053746F726564006597
:1005700063686F3A004572726F723A0053544F507D
:100580005045442E20005072696E74657220737459
:100590006F707065642064756520746F2065727279
:1005A0006F72732E204669782074686520657272B8
:1005B0006F7220616E6420757365204D3939392062
:1005C000746F20726573746172742E202854656D87
:1005D00070657261747572652069732072657365E8
:1005E000742E2053657420697420616674657220CE
:1005F00072657374617274696E6729004B494C4C63
:1006000045442E20005072696E7465722068616CDA
:100610007465642E206B696C6C28292063616C6C96
:10062000656421006F6B00526573656E643A20004B
:100630002200556E6B6E6F776E20636F6D6D616E0D
:10064000643A2022004368616E67652066696C61C8
:100650006D656E74007A5F6D61783A20007A5F6D27
:10066000696E3A2000795F6D61783A2000785F6D9D
:1006700061783A2000205A3A0020593A0020436F0E
:10068000756E7420583A200020453A00205A3A00EE
:1006900020593A00583A004649524D574152455F59
:1006A0004E414D453A4D61726C696E2056313B208A
:1006B000537072696E7465722F6772626C206D611F
:1006C0007368757020666F722067656E36204649C4
:1006D000524D574152455F55524C3A68747470738D
:1006E0003A2F2F6769746875622E636F6D2F45729C
:1006F000696B5A616C6D2F4D61726C696E2F205061
:10070000524F544F434F4C5F56455253494F4E3A08
:10071000312E30204D414348494E455F5459504594
:100720003A4B6F7373656C2045585452554445528B
:100730005F434F554E543A3120555549443A303075
:100740003030303030302D303030302D30303030AF
:100750002D303030302D303030303030303030309F
:1007600030300A004B6F7373656C204F66662E0045
:100770004B6F7373656C2072656164792E004265FE
:100780006420646F6E652E0020423A0020453A00D6
:10079000543A004265642048656174696E672E00B2
:1007A00048656174696E6720646F6E652E0020571E
:1007B0003A0020453A00543A0048656174696E6712
:1007C0002E2E2E002042403A0020403A00202F00DA
:1007D0003A00205400202F0020423A00202F006FC2
:1007E0006B20543A002569206D696E2C2025692004
:1007F00073656300456E642066696C65206C69737F
:100800007400426567696E2066696C65206C697367
:1008100074004E6F206D6F76652E00526573756D96
:10082000696E67207072696E740057616974206622
:100830006F7220757365722E2E2E000A00205A3AB0
:10084000200020593A200020583A200042656400D8
:10085000536C6565702E2E2E0001010100000C43C3
:1008600000000C4300004D430000A0400000A040E9
:100870000000A040000000000000000000004D4308
:1008800000008CC200008CC20000000000008C42FE
:1008900000008C4200004D430A00207A3A200020DC
:1008A000793A200020783A20004265640020002533
:1008B0006920686F757273202569206D696E757483
:1008C000657300446F6E65207072696E74696E673F
:1008D0002066696C650053544F505045442E2000EB
:1008E0005072696E7465722073746F7070656420E5
:1008F00064756520746F206572726F72732E204666
:10090000697820746865206572726F7220616E6408
:1009100020757365204D39393920746F20726573E5
:10092000746172742E202854656D706572617475DF
:1009300072652069732072657365742E2053657427
:1009400020697420616674657220726573746172C7
:1009500074696E6729006F6B004E6F204C696E657D
:10096000204E756D626572207769746820636865D2
:10097000636B73756D2C204C617374204C696E65CC
:100980003A20004E6F20436865636B73756D207766
:10099000697468206C696E65206E756D6265722C75
:1009A000204C617374204C696E653A200063686561
:1009B000636B73756D206D69736D617463682C2052
:1009C0004C617374204C696E653A20004C696E6509
:1009D000204E756D626572206973206E6F74204CB5
:1009E000617374204C696E65204E756D6265722B63
:1009F000312C204C617374204C696E653A20004D97
:100A000031313000446F6E6520736176696E672006
:100A100066696C652E006F6B004D323900202050E6
:100A20006C616E6E65724275666665724279746558
:100A3000733A20002046726565204D656D6F7279AE
:100A40003A2000417567203138203230313500437B
:100A50006F6D70696C65643A2000286A63726F6319
:100A6000686F6C6C2C204D696E69204B6F737365D9
:100A70006C2900207C20417574686F723A20004117
:100A8000756720313820323031352030313A3334F7
:100A90003A333700204C617374205570646174657B
:100AA000643A2000312E302E30004D61726C696E38
:100AB0000020536F667477617265205265736574A8
:100AC00000205761746368646F67205265736574B2
:100AD000002042726F776E206F75742052657365C7
:100AE00074002045787465726E616C205265736580
:100AF0007400506F77657255700073746172740082
:100B00002200656E717565696E672022002200659E
:100B10006E717565696E672022006563686F3A00C3
:100B200020746F6F206C6F6E6720657874727573B8
:100B3000696F6E2070726576656E746564002063FF
:100B40006F6C6420657874727573696F6E20707253
:100B50006576656E746564007C3C3E5E2B3D3F2F80
:100B60005B5D3B2C2A225C0045313A200045303A3F
:100B700020005A3A2000593A2000583A20004D539C
:100B8000312C4D53322050696E730A0024F404D97D
:100B9000201BC40C5C0E9804C4095F026507710138
:100BA000F405F900FB04B30048048700C1036900A1
:100BB0005803550003034500BE023A008402310089
:100BC00053022A002902250004022000E4011C002F
:100BD000C8011900AF011700980114008401130027
:100BE000710110006101100051010E0043010D0060
:100BF00036010B002B010B0020010B001501090031
:100C00000C01090003010800FB000800F3000800C4
:100C1000EB000700E4000600DE000600D800060036
:100C2000D2000600CC000500C7000500C200050088
:100C3000BD000400B9000400B5000400B1000400C8
:100C4000AD000400A9000400A5000300A2000300F9
:100C50009F0004009B000300980003009500020021
:100C600093000300900003008D0002008B0003003E
:100C70008800020086000200840003008100020058
:100C80007F0002007D0002007B000200790002006C
:100C9000770001007600020074000200720001007B
:100CA000710002006F0002006D0001006C00020084
:100CB0006A0001006900020067000100660001008F
:100CC0006500010064000200620001006100010093
:100CD000600001005F0002005D0001005C00010097
:100CE0005B0001005A00010059000100580001009A
:100CF000570001005600010055000100540001009A
:100D00005300000053000100520001005100010097
:100D1000500001004F0001004E0000004E00010095
:100D20004D0001004C0001004B0000004B00010091
:100D30004A0001004900010048000000480001008D
:100D40004700010046000000460001004500000089
:100D50004500010044000100430000004300010081
:100D6000420000004200010041000000410001007B
:100D7000400001003F0000003F0001003E00000075
:100D80003E0001003D0000003D0001003C0000006D
:100D90003C0000003C0001003B0000003B00010063
:100DA0003A0000003A00010039000000390001005B
:100DB0003800000038000000380001003700000053
:100DC0003700010036000000360000003600010048
:100DD000350000003500000035000100340000003F
:100DE0003400000034000100330000003300000034
:100DF0003300010032000000320000003200010028
:100E0000310000003100000031000100300000001E
:100E100030000000300001002F0000002F00000013
:100E20002F0000002F0001002E0000002E00000007
:100E30002E0001002D0000002D0000002D000000FC
:100E40002D0001002C0000002C0000002C000000F0
:100E50002C0001002B0000002B0000002B000000E4
:100E60002B0001002A0000002A0000002A000000D8
:100E70002A000100290000002900000029000000CC
:100E800029000000290001002800000028000000BF
:100E900028000000280000002800010027000000B2
:100EA00027000000270000002700000027000100A5
:100EB000260000002600000026000000260000009A
:100EC000260001002500000025000000250000008C
:100ED000250000002500000025000100240000007E
:100EE0002400000024000000240000002400010071
:100EF0002300000023000000230000002300000066
:100F00002300000023000000230001002200000055
:100F10002200000022000000220000002200000049
:100F2000220001002100000021000000210000003B
:100F3000210000002100000021000000210001002C
:100F40002000000020000000200000002000000021
:100F50002000000020000000200000002000010010
:100F60001F0000001F0000001F0000001F00000005
:100F70001F0000001F0000001F0001001E000000F5
:100F80001E0000001E0000001E00000024F4D430EB
:100F900050C38E20C2A24017828B7011127A910D1D
:100FA000816CD90AA861E108C758660761514306F8
:100FB0001E4B5D05C145A7041A411104093D980364
:100FC000713931034036DB0265339102D43054026B
:100FD000802E1D02632CEE01752AC501B028A001E8
:100FE000102781018F2564012B244B01E02234015D
:100FF000AC211F018D200D01801FFC00841EED001F
:10100000971DDF00B81CD200E61BC600201BBC00E9
:10101000641AB200B219A8000A19A0006A1899004F
:10102000D117910040178B00B516840031167E0051
:10103000B31579003A157300C7146F0058146A008D
:10104000EE1366008813630025135E00C7125B0071
:101050006C12570015125400C111510070114F004D
:1010600021114B00D61049008D1047004610440056
:1010700002104200C00F4000800F3E00420F3C00B3
:10108000060F3B00CB0E3800930E37005C0E350088
:10109000270E3400F30D3200C10D3100900D3000E9
:1010A000600D2E00320D2D00050D2C00D90C2B00EB
:1010B000AE0C2900850C29005C0C2700350C27009C
:1010C0000E0C2600E80B2400C40B2400A00B230008
:1010D0007D0B23005A0B2100390B2100180B200037
:1010E000F80A1F00D90A1E00BB0A1E009D0A1D0037
:1010F000800A1D00630A1C00470A1B002C0A1B0003
:10110000110A1A00F7091A00DD091900C4091900AB
:10111000AB091900920917007B0918006309170031
:101120004C09160036091600200916000A09150098
:10113000F5081500E0081400CC081400B8081400E5
:10114000A4081400900813007D0812006B08130017
:101150005808120046081200340811002308110034
:101160001208110001081100F0071000E00710003C
:10117000D0071000C0071000B0070F00A107100033
:1011800091070E0083070F0074070F0065070E001C
:1011900057070E0049070E003B070D002E070E00F3
:1011A00020070D0013070D0006070D00F9060C00BF
:1011B000ED060D00E0060C00D4060C00C8060C007D
:1011C000BC060C00B0060C00A4060B0099060C002F
:1011D0008D060B0082060B0077060B006C060B00D9
:1011E00061060A0057060B004C060A0042060A0078
:1011F00038060A002E060A0024060A001A060A000B
:101200001006090007060A00FD050900F40509009B
:10121000EB050900E2050900D9050900D005090020
:10122000C7050900BE050900B5050800AD050800A1
:10123000A50509009C050800940508008C05080018
:10124000840508007C050800740508006C0507008B
:10125000650508005D050700560508004E050700F6
:10126000470507004005080038050700310507005D
:101270002A050700230507001C05060016050700C0
:101280000F0507000805060002050700FB0406001D
:10129000F5040700EE040600E8040600E204070077
:1012A000DB040600D5040600CF040600C9040600CE
:1012B000C3040600BD040600B7040600B10405001F
:1012C000AC040600A6040600A00405009B0406006A
:1012D00095040500900406008A04050085040500B5
:1012E000800406007A0405007504050070040500FA
:1012F0006B04050066040500610405005C0405003C
:1013000057040500520405004D040500480405007B
:10131000430405003E0404003A04050035040500BA
:10132000300404002C0405002704040023040500F5
:101330001E0404001A04040016040500110404002D
:101340000D04040009040500040404000004040062
:10135000FC030400F8030400F4030400F003040099
:10136000EC030400E8030400E4030400E0030400C9
:10137000DC030400D8030400D4030400D0030400F9
:10138000CC030400C8030300C50303006563686F52
:101390003A00656E6473746F7073206869743A20E4
:1013A0005A00205A3A00656E6473746F7073206837
:1013B00069743A20590020593A00656E6473746F5D
:1013C0007073206869743A20580020583A00656E9E
:1013D0006473746F7073206869743A200045727288
:1013E0006F723A004572723A204D415854454D5043
:1013F000204245440054656D706572617475726574
:10140000206865617465642062656420737769741F
:1014100063686564206F66662E204D415854454DC3
:1014200050207472696767657265642021210045E8
:1014300072723A204D494E54454D50003A2045783D
:10144000747275646572207377697463686564206B
:101450006F66662E204D494E54454D50207472697A
:101460006767657265642021004572723A204D41BC
:101470005854454D50003A20457874727564657231
:10148000207377697463686564206F66662E204DEB
:10149000415854454D5020747269676765726564A0
:1014A000202100202D20496E76616C6964206578CA
:1014B000747275646572206E756D626572202100AC
:1014C000504944204175746F74756E652066696E6D
:1014D0006973686564212050757420746865204BB9
:1014E000702C204B6920616E64204B6420636F6E0A
:1014F0007374616E747320696E746F20436F6E66CF
:10150000696775726174696F6E2E68005049442076
:101510004175746F74756E65206661696C656421D0
:101520002074696D656F75740020403A006F6B2000
:10153000543A006F6B20423A005049442041757480
:101540006F74756E65206661696C656421205465F1
:101550006D706572617475726520746F6F20686953
:10156000676800204B643A2000204B693A20002035
:101570004B703A200020436C6173696320504944EA
:1015800020002054753A2000204B753A2000206D31
:1015900061783A2000206D696E3A200020643A207C
:1015A0000020626961733A20001000C90210012C0A
:1015B000014001220170011801B0010E01F0010487
:1015C000015002FA00B002F0003003E600D003DC64
:1015D000009004D2007005C800A006BE000008B448
:1015E00000B009AA00D00BA000600E960060118C1C
:1015F000000015820020197800C01D6E00A0226432
:1016000000B0275A00902C500000314600E0343CD6
:101610000010383200903A2800603C1E00A03D14B3
:1016200000803E0A00203F00002D2D3A2D2D002D78
:101630002D2D005344002059000120004E6F2053EF
:10164000442063617264005072696E742066726F28
:101650006D2053440053746F70207072696E740073
:10166000526573756D65207072696E740050617596
:101670007365207072696E7400436F6E74726F6C64
:1016800000507265706172650054756E6500496E38
:10169000666F2073637265656E00052E2E004D61C6
:1016A000696E004D3234004D3233202573004D38C1
:1016B0003420582059205A204500526573746F72A7
:1016C00065206661696C73616665004C6F616420BA
:1016D0006D656D6F72790053746F7265206D656D05
:1016E0006F7279004D6F74696F6E0054656D70652F
:1016F000726174757265004D61696E004573746541
:1017000070732F6D6D004573746570732F6D6D0070
:101710005A73746570732F6D6D005A7374657073AE
:101720002F6D6D005973746570732F6D6D00597353
:10173000746570732F6D6D005873746570732F6DC1
:101740006D005873746570732F6D6D00412D726557
:10175000747261637400412D726574726163740008
:10176000416D6178206500416D6178206500416DB3
:101770006178207A00416D6178207A00416D61784E
:10178000207900416D6178207900416D6178207881
:1017900000416D61782078005654726176206D6941
:1017A0006E005654726176206D696E00566D696EDA
:1017B00000566D696E00566D6178206500566D614A
:1017C00078206500566D6178207A00566D6178202A
:1017D0007A00566D6178207900566D617820790025
:1017E000566D6178207800566D61782078005665D6
:1017F0002D6A65726B0056652D6A65726B00567AAC
:101800002D6A65726B00567A2D6A65726B00567888
:10181000792D6A65726B005678792D6A65726B0056
:10182000416363656C00416363656C005A204F66D9
:1018300066736574005A204F666673657400436F63
:101840006E74726F6C0050726568656174204142FD
:101850005320636F6E660050726568656174205036
:101860004C4120636F6E66005049442D430050493F
:10187000442D43005049442D44005049442D440018
:101880005049442D49005049442D49005049442DA8
:1018900050005049442D50002002204661637400DE
:1018A00020022046616374002002204D61780020F0
:1018B00002204D6178002002204D696E0020022038
:1018C0004D696E004F6666004F6E20004F666600E1
:1018D0004F6E20004175746F74656D700046616EC7
:1018E0002073706565640046616E20737065656481
:1018F000004E6F7A7A6C65004E6F7A7A6C650043A1
:101900006F6E74726F6C0053746F7265206D656DCD
:101910006F7279004E6F7A7A6C65004E6F7A7A6CCE
:10192000650046616E2073706565640046616E20D7
:1019300073706565640054656D706572617475726D
:10194000650053746F7265206D656D6F7279004E1E
:101950006F7A7A6C65004E6F7A7A6C650046616EBC
:101960002073706565640046616E20737065656400
:101970000054656D7065726174757265004D6F76A7
:10198000652061786973004D38300053776974635E
:101990006820706F776572206F6E004D383100538C
:1019A000776974636820706F776572206F66660070
:1019B000436F6F6C646F776E005072656865617419
:1019C00020414253005072656865617420504C415B
:1019D00000473238004175746F20686F6D65004DA7
:1019E00038340044697361626C652073746570708B
:1019F000657273004D61696E004D6F766520302E03
:101A0000316D6D004D6F766520316D6D004D6F76D7
:101A1000652031306D6D00507265706172650045F2
:101A200078747275646572004D6F7665205A004D4A
:101A30006F76652059004D6F76652058004D6F76A2
:101A40006520617869730045787472756465720009
:101A50005A00590058004D363030004368616E67B7
:101A6000652066696C616D656E7400466C6F770009
:101A7000466C6F770046616E207370656564004642
:101A8000616E207370656564004E6F7A7A6C6500D4
:101A90004E6F7A7A6C6500537065656400537065AB
:101AA0006564004D61696E00436172642072656D0A
:101AB0006F766564004361726420696E7365727449
:101AC00065640000002100240027002A002D00305A
:101AD00000330001010000040107010A0100002297
:101AE00000250028002B002E0031003400020100E8
:101AF00000050108010B0100002000230026002939
:101B0000002C002F00320000010000030106010933
:101B10000105050505070508080808020202020A72
:101B20000A08080404040401010101010101010380
:101B300003030303030303040707070C0C0C0C0C3B
:101B40000C0C0C0202020206060606060606060B2E
:101B50000B0B0B0B0B0B0B010210202008081020A5
:101B60004010204080020102010804020101020429
:101B700008102040808040201008040201800402E8
:101B8000018040201008040201080402010102043F
:101B90000810204080010204081020408000000945
:101BA0000A02080B0C0D07060304010000000000E8
:101BB0000000000000000000000000000000000025
:101BC00000000000000000000011100F00000000E5
:101BD0000000000000000000000000000000000005
:101BE00000000002494E46494E4954594E414ECDDF
:101BF000CCCC3D0AD7233C17B7D13877CC2B3295C4
:101C000095E6241FB14F0A000020410000C84200A1
:101C1000401C4620BCBE4CCA1B0E5AAEC59D74006B
:101C2000D72BBB2FDBCF02D7B62F11241FBECFEF90
:101C3000D1E2DEBFCDBF00E00CBF14E0A0E0B2E017
:101C4000ECE0FFEC01E00BBF02C007900D92A23C5C
:101C5000B107D9F71BBE13E1A2ECB4E001C01D929D
:101C6000A73AB107E1F71CE1C8E2DCE104C0229722
:101C7000FE010E942CE7C032D107C9F70E9427DE7F
:101C80000C947AE70C940000A0E0B0E0EAE4FEE0F7
:101C90000C9449E7EC015B016115710519F0FB013A
:101CA00091838083F9908F2D90E00E9430E7892BFB
:101CB000C9F7FDE2FF1621F4F990EE24E39405C084
:101CC0002BE2F21609F4F990EE248E010150104037
:101CD000C80164EE7BE143E050E072D2892BF9F455
:101CE0008E010E5F1F4FC80167EE7BE145E050E0BB
:101CF00067D2892B19F48E01095F1F4FA114B1041B
:101D000019F0F50111830083E0FC04C070E090E05D
:101D100080E813C070E090E080E86FEF07C1C80171
:101D20006CEE7BE143E050E04BD2892B69F4A114C7
:101D3000B10429F470E090E080EC6FE7F7C02296E0
:101D4000F501D183C083F6CF8824992440E050E088
:101D500060E070E0EF2DE053EA30A0F5F2E0EF2A0A
:101D60008E2D90E09C0128703070E2FE06C0232B7F
:101D700079F50894811C911C2BC0232B19F0089431
:101D800081089108DB01CA0112E0880F991FAA1F80
:101D9000BB1F1A95D1F7480F591F6A1F7B1F440FAD
:101DA000551F661F771F4E0F511D611D711D48394C
:101DB00029E9520729E9620729E1720748F084E01E
:101DC000E82A06C0EE3F31F4E3FC39C098E0E92A86
:101DD000F990C0CFE53311F0E53189F529912D3225
:101DE00019F4E0E1EE2A05C02B3219F081E090E011
:101DF00003C0299182E090E0E22FE053EA3018F02E
:101E0000C81BD90B1CC020E030E0FCE020383F07A5
:101E10005CF4C901880F991F880F991F280F391F7B
:101E2000220F331F2E0F311DE991E053EA3068F382
:101E3000E4FE03C0309521953F4F820E931ECE2CB9
:101E4000DD24E1FE07C0A114B10421F02197F501C2
:101E5000D183C083CB01BA010E9495E37B018C0141
:101E6000F3E0CF22DD2423E0C216D10421F417FBD6
:101E7000109517F9109557016801C801B70120E0C6
:101E800030E040E050E00E94F5E2882309F44AC0C7
:101E900097FE0DC023E0E22E2CE1F22E9094819467
:101EA00091089394C0E2D0E000E010E012C09BE102
:101EB000E92E9CE1F92EF6CFF70125913591459158
:101EC0005491C601B5010E94D5E55B016C018C1AE5
:101ED0009D0A8C169D0684F7D595C7950F5F1F4FF9
:101EE0000630110529F08CEF9FEFE80EF91EF1CFB7
:101EF000C501D6017C018D018C2D880F8D2D881F89
:101F00008F3F51F0C601B50120E030E040E050E0E5
:101F10000E94F5E2882331F482E290E09093A613C8
:101F20008093A5137E2D9F2D802F612F272F392F72
:101F3000482F562FB901CA01CDB7DEB7ECE00C949B
:101F400065E72F923F925F926F927F928F929F925E
:101F5000AF92BF92CF92DF92EF92FF920F931F93B7
:101F6000CF93DF938C011B01EA016115710519F014
:101F7000FB0191838083209749F0CE0102978397DC
:101F800028F020E030E040E050E0F6C0F801A190F9
:101F90008F018A2D90E00E9430E7892BB9F7FDE28E
:101FA000AF1631F4F801A1908F015524539407C066
:101FB000FBE2AF1619F4F801A1908F015524209788
:101FC00019F0C031D105C1F4F0E3AF1679F4F8018E
:101FD0008081883711F0883549F4F801A1800E5FBF
:101FE0001F4FF2E05F2AC0E1D0E006C0209721F445
:101FF00080E3A816E9F427C0C830D10531F1C93013
:10200000D10524F4C230D10531F50CC0CA30D10558
:1020100089F0C031D105F9F4C12CD12CE12CB8E004
:10202000FB2E28C0C12CD12CE12CA0E4FA2E22C01A
:10203000CAE0D0E0FCECCF2EFCECDF2EFCECEF2E67
:10204000FCE0FF2E17C0C8E0D0E0C12CD12CE12C61
:10205000E0E1FE2E0FC09E01442737FD4095542F2E
:1020600060E070E080E090E80E94EDE6C901DA01EE
:102070006C017D0120E030E040E050E060E03E0196
:10208000882477FC8094982C70EDB72EBA0CE9E088
:10209000EB1570F48A2D81548A3118F499ECB92E1D
:1020A00006C08A2D81568A3150F589EAB82EBA0CBD
:1020B0008B2D90E08C179D0714F56F3FE1F0C21651
:1020C000D306E406F506B0F0CA01B901A4019301F4
:1020D0000E94A7E69B01AC012B0D311D411D511D36
:1020E0002130F0E03F07F0E04F07F0E85F0710F421
:1020F00061E001C06FEFF801A1908F01C5CF2114FD
:10210000310481F0662331F001501040F101118358
:10211000008308C051FE1AC002501040F101118323
:10212000008314C067FF12C050FC05C02FEF3FEFC3
:102130004FEF5FE704C020E030E040E050E882E28B
:1021400090E09093A6138093A51316C050FE08C08C
:1021500050954095309521953F4F4F4F5F4F0CC0A4
:1021600057FF0AC082E290E09093A6138093A513D4
:102170002FEF3FEF4FEF5FE7B901CA01DF91CF913A
:102180001F910F91FF90EF90DF90CF90BF90AF9095
:102190009F908F907F906F905F903F902F900895C9
:1021A000FB01DC0105900D920020E1F70895FC0190
:1021B00005900020E9F7809590958E0F9F1F089558
:1021C000FB01DC014150504088F08D9181341CF0BE
:1021D0008B350CF4805E659161341CF06B350CF42A
:1021E000605E861B611171F3990B0895881BFCCF0B
:1021F000FB01DC014150504048F005900D92002059
:10220000C9F701C01D9241505040E0F70895FB010D
:1022100055915523A9F0BF01DC014D91451741119E
:10222000E1F759F4CD010590002049F04D9140159A
:102230004111C9F3FB014111EFCF81E090E001971B
:102240000895FB01DC0104C08D910190801921F4F7
:1022500041505040C8F7881B990B0895FB01DC01E1
:1022600002C001900D9241505040D8F70895FB01F3
:10227000DC010D900020E9F7119701900D920020EC
:10228000E1F70895FC018191861721F08823D9F7A1
:10229000992708953197CF010895FB01DC01019042
:1022A0000D920020E1F70895FB01DC014150504000
:1022B00030F08D910190801919F40020B9F7881B36
:1022C000990B0895FB01DC014150504048F001900A
:1022D0000D920020C9F701C01D9241505040E0F717
:1022E0000895AEE0B0E0E7E7F1E10C9451E70E8924
:1022F0001F898EE08C831A8309838FEF9FE79E836B
:102300008D839E01265E3F4FCE010196688D798DAB
:10231000A9010AD02F813885020F131FF8011082FE
:102320002E96E4E00C946DE7ABE0B0E0EAE9F1E171
:102330000C9443E73C012B015A01FC0117821682E1
:10234000838181FD03C06FEF7FEFB9C19AE0892ED1
:102350001E010894211C311CF3012381F20123FD8D
:10236000859123FF81912F01882309F4A5C185322E
:1023700039F423FD859123FF81912F01853221F4CA
:1023800090E0B301B7D1E8CF982FFF24EE24992431
:10239000FFE1FF15D0F09B3269F09C3228F49032B7
:1023A00059F0933291F40EC09D3249F0903369F4A4
:1023B00041E024C052E0F52A84E0F82A28C098E0E1
:1023C000F92A25C0E0E1FE2A22C0F7FC29C0892FA6
:1023D00080538A3070F4F6FE05C0989C902C11242E
:1023E000980E15C0E89CE02C1124E80EF0E2FF2ABC
:1023F0000EC09E3229F4F6FC5FC140E4F42A07C007
:102400009C3619F450E8F52A02C0983649F4F201D6
:1024100023FD959123FF91912F01992309F0B8CFC6
:10242000892F8554833018F08052833038F444E08B
:1024300050E0A40EB51E5FE359830FC0933631F010
:10244000933779F0933509F052C01FC0F5018081B0
:10245000898342E050E0A40EB51E610101E010E066
:1024600011C0F501C080D180F6FC03C06FEF7FEF93
:1024700002C0692D70E042E050E0A40EB51EC60116
:102480002ED18C015FE7F52213C0F501C080D18009
:10249000F6FC03C06FEF7FEF02C0692D70E042E0F1
:1024A00050E0A40EB51EC6010FD18C0150E8F52AEC
:1024B000F3FE06C018C080E290E0B3011BD1EA949D
:1024C0008E2D90E008171907B0F30DC0F601F7FC48
:1024D0008591F7FE81916F0190E0B3010BD1E1107E
:1024E000EA94015010400115110581F7E2C09436BD
:1024F00011F0993661F5F7FE08C0F50120813181B0
:102500004281538184E090E00AC0F501808191818D
:102510009C01442737FD4095542F82E090E0A80E9F
:10252000B91E9FE6F92257FF09C050954095309596
:1025300021953F4F4F4F5F4FE0E8FE2ACA01B90196
:10254000A1012AE030E002D1D82ED2183FC0953741
:1025500029F41F2D1F7E2AE030E01DC01F2D197F9A
:102560009F3661F0903720F4983509F0A5C00FC070
:10257000903739F0983709F09FC004C028E030E068
:102580000AC0106114FD146020E130E004C014FDA5
:10259000166020E132E017FF08C0F501608171810B
:1025A0008281938144E050E008C0F50180819181EF
:1025B000BC0180E090E042E050E0A40EB51EA10115
:1025C000C5D0D82ED2188FE7F82EF122F6FE0BC018
:1025D0005EEFF522D91438F4F4FE07C0F2FC05C012
:1025E0008FEEF82202C01D2D01C0192DF4FE0DC082
:1025F000FE01ED0DF11D8081803319F499EEF92271
:1026000008C01F5FF2FE05C003C08F2D867809F059
:102610001F5F0F2DF3FC13C0F0FE0EC01E1510F04F
:102620009D2C0AC09D2C9E0C911A1E2D05C080E287
:1026300090E0B3015FD01F5F1E15C8F304C01E15E4
:1026400010F4E11A01C0EE2404FF0EC080E390E014
:10265000B30150D002FF1BC001FD03C088E790E02A
:102660000EC088E590E00BC0802F867881F001FFD6
:1026700002C08BE201C080E2F7FC8DE290E0B30182
:1026800039D005C080E390E0B30134D09A94D914D6
:10269000C8F3DA94F101ED0DF11D808190E0B301F2
:1026A00029D0DD20B1F705C080E290E0B30122D04F
:1026B000EA94EE20C9F750CEF30166817781CB0111
:1026C0002B96E2E10C945FE7FC01059061507040AD
:1026D0000110D8F7809590958E0F9F1F0895FC01EB
:1026E0006150704001900110D8F7809590958E0F41
:1026F0009F1F08950F931F93CF93DF938C01EB01DE
:102700008B8181FF1BC082FF0DC02E813F818C8198
:102710009D812817390764F4E881F9810193F983D1
:10272000E88306C0E885F985802F1995892B31F457
:102730008E819F8101969F838E8302C00FEF1FEFD2
:10274000C801DF91CF911F910F910895FA01AA2737
:10275000283051F1203181F1E8946F936E7F6E5FE4
:102760007F4F8F4F9F4FAF4FB1E03ED0B4E03CD092
:10277000670F781F891F9A1FA11D680F791F8A1F75
:10278000911DA11D6A0F711D811D911DA11D20D0DC
:1027900009F468943F912AE0269F11243019305D96
:1027A0003193DEF6CF010895462F4770405D419387
:1027B000B3E00FD0C9F7F6CF462F4F70405D4A33D4
:1027C00018F0495D31FD4052419302D0A9F7EACF9C
:1027D000B4E0A6959795879577956795BA95C9F7CB
:1027E00000976105710508959B01AC010A2E0694BE
:1027F0005795479537952795BA95C9F7620F731F77
:10280000841F951FA01D0895FC0112821382089554
:10281000FC018381882311F081E082830895FC010B
:102820008281811112820895CF93DF93DC01FC0134
:10283000EB55FE4F808191810097C9F101979183FB
:102840008083ED01CC5ADF4FFD01ED58FF4F8BE146
:10285000019009928150E1F7FD01EE5AFF4FAF5808
:10286000BF4F8D919C911197A157B0409183808368
:10287000FD01ED58FF4F20E030E0AD014B555E4FBC
:1028800010C02F5F3F4FEF01DF015F968BE10D908E
:1028900009928150E1F7858D968D329791838083DF
:1028A000B196DA018D919C912817390750F3DF9189
:1028B000CF910895FC018BE594E09183808387811B
:1028C000882321F0CF0104960C94AA7A0895CF9220
:1028D000DF92EF92FF920F931F93DF93CF93CDB7C9
:1028E000DEB76F970FB6F894DEBF0FBECDBF8C0179
:1028F0006B01095A1F4FD8018C910755104088234E
:1029000021F42FE2E22EF12C03C090E5E92EF12C08
:10291000E00EF11E8BE594E09A8389831C821B8272
:1029200018861D82B7016C5F7F4FCE010596A60108
:1029300021E00E949681882391F5EBE3F1E09491E8
:1029400008C08091C00085FFFCCF9093C6003196EF
:1029500094919923B1F7E1E4F1E0949108C080915A
:10296000C00085FFFCCF9093C600319694919923C7
:10297000B1F709C08091C00085FFFCCF0894C11C4D
:10298000D11C9093C600F6019081992399F780910C
:10299000C00085FFFCCF8AE08093C6005AC0F801D2
:1029A000EB55FE4F208131812A30310508F040C0BF
:1029B0002F5F3F4F3183208321503040F90185E064
:1029C000EE0FFF1F8A95E1F7E21BF30BED58FF4F67
:1029D000E00FF11F13C0AF01415E5F4FBF018BE1FC
:1029E000DB010D90BD01DA010D92AD018150C1F7FF
:1029F000929182913296968F858F7F9721503040A9
:102A0000BFEF2E3F3B0739F7D801AD58BF4FF70155
:102A100034968BE101900D928150E1F70F581F4FD2
:102A2000F70182819381D8018D939C9301571040C7
:102A3000D801AC5ABF4FFE0135968BE101900D9243
:102A40008150E1F70E5A1F4F8B819C81F8019183D1
:102A50008083CE0101962EDF6F960FB6F894DEBF0D
:102A60000FBECDBFCF91DF911F910F91FF90EF90DF
:102A7000DF90CF900895EF92FF920F931F938C01F8
:102A80003EECE32E31E0F32EE80EF91EC7010E9462
:102A90005D7AC7010E94AA7AF801108211821F9103
:102AA0000F91FF90EF900895CF92DF92EF92FF92F7
:102AB0000F931F93CF93DF937C016B01DB010D908C
:102AC0000020E9F78D0101501040061B170BEEECBA
:102AD000F1E0EE0EFF1ED7011C92E2E3FEEFEE0ED8
:102AE000FF1ECB016EE470E0CDDBEC01009731F40A
:102AF000F8013197EC0DFD1D86010CC060E270E01D
:102B0000C1DB8C010F5F1F4FCE016AE270E0BADBC0
:102B1000FC0131978DE081838AE082831382C701B3
:102B200086539E4FB8010E948F828EEC91E0E80E92
:102B3000F91ED7018C91882319F1EBE6F1E094910D
:102B400008C08091C00085FFFCCF9093C6003196ED
:102B500094919923B1F7E2E7F1E0949108C0809154
:102B6000C00085FFFCCF9093C600319694919923C5
:102B7000B1F78091C00085FFFCCF8AE08093C6004A
:102B8000DF91CF911F910F91FF90EF90DF90CF9049
:102B90000895CF93DF93EC018B81882309F43BC028
:102BA000EAE9F1E0949108C08091C00085FFFCCF74
:102BB0009093C600319694919923B1F7CD57DD4F8C
:102BC000488159816A817B81C358D24086E495E06F
:102BD0002AE030E00E94702CE8E9F1E0949108C00E
:102BE0008091C00085FFFCCF9093C60031969491F0
:102BF0009923B1F7C558DD4F488159816A817B819E
:102C000086E495E02AE030E00E94702C8091C000BC
:102C100085FFFCCF12C0E8E8F1E0949108C08091F4
:102C2000C00085FFFCCF9093C60031969491992304
:102C3000B1F78091C00085FFFCCF8AE08093C60089
:102C4000DF91CF9108952F923F924F925F926F92B2
:102C50007F928F929F92AF92BF92CF92DF92EF922C
:102C6000FF920F931F93DF93CF93CDB7DEB7AC974F
:102C70000FB6F894DEBF0FBECDBF5C014B01FC0167
:102C80008381882309F434C1C50182539E4F0E9479
:102C9000AA7AF50112821A8A1D8A198A188A8BE586
:102CA00094E09F878E875EE4C52ED12CCA0CDB1C76
:102CB0002FE230E0A20EB31EF601B182A08221ED18
:102CC0003FEFA20EB31EF40180818F3209F08DC058
:102CD000C4016FE270E0D6DA7C010894E11CF11CBB
:102CE0003E010894611C711C260142E1242E312C06
:102CF0002C0E3D1E75C0C7016FE270E0C3DA6C0197
:102D0000009709F480C0E816F90608F07CC08C0131
:102D10000E191F09C301B701A801D4DA060D171D4A
:102D2000F8011082F30107C08091C00085FFFCCF3D
:102D300031969093C60090819923B1F78091C0009D
:102D400085FFFCCFFAE0F093C600F201608171814B
:102D50006115710519F460E070E002C06C5F7F4F8F
:102D6000C101A30121E00E949681882371F5E6ED5F
:102D7000F1E0949108C08091C00085FFFCCF909352
:102D8000C600319694919923B1F7FE01319607C0A0
:102D90008091C00085FFFCCF31969093C600908152
:102DA0009923B1F7E4EDF1E0949108C08091C0005F
:102DB00085FFFCCF9093C600319694919923B1F78B
:102DC0008091C00085FFFCCF8DC02EE030E02C0F3D
:102DD0003D1FF2013183208376010894E11CF11C30
:102DE000E114F10409F087CF0BC080E590E0A80E54
:102DF000B91EF601B182A08220EB3FEFA20EB31EF6
:102E0000D82C092D02C0DE2C0F2D8EE490E0A80EE8
:102E1000B91EF5018081918122EB3FEFA20EB31E16
:102E2000009719F480E090E001C004966D2D702F9A
:102E30000E946282882339F1E6ECF1E0949108C0A7
:102E40008091C00085FFFCCF9093C600319694918D
:102E50009923B1F78D2D902F9C01F90107C0809126
:102E6000C00085FFFCCF31969093C60090819923D6
:102E7000B1F783E892E0A80EB91EF5011082118225
:102E80001282138232C0EEEAF1E0949108C0809180
:102E9000C00085FFFCCF9093C60031969491992392
:102EA000B1F78D2D902F9C01F90107C08091C000D2
:102EB00085FFFCCF31969093C60090819923B1F79E
:102EC000ECEAF1E0949108C08091C00085FFFCCF4E
:102ED0009093C600319694919923B1F78091C000E8
:102EE00085FFFCCF8AE08093C600CE010E96E2DC1F
:102EF000AC960FB6F894DEBF0FBECDBFCF91DF9179
:102F00001F910F91FF90EF90DF90CF90BF90AF9007
:102F10009F908F907F906F905F904F903F902F90F9
:102F20000895BF92CF92DF92EF92FF920F931F937B
:102F3000CF93DF938C01EB018FE28993EE24E3942E
:102F4000FF2475EAC72E71E0D72EC00ED11E6FE1A7
:102F5000B62E14C0FB9CC00111248D589F4F800FCA
:102F6000911FBE010E94BA7A02C02196E394888123
:102F7000882319F08CE88E15C0F7F3942F2D30E0DC
:102F8000F601808191812817390720F3E7FC07C0FB
:102F9000C80182539E4FBE010E94BA7A01C01882B6
:102FA000DF91CF911F910F91FF90EF90DF90CF9025
:102FB000BF9008952F923F924F925F926F927F92AF
:102FC0008F929F92AF92BF92CF92DF92EF92FF9239
:102FD0000F931F93DF93CF93CDB7DEB7AD970FB6A7
:102FE000F894DEBF0FBECDBF6C014B014DA7DC01D5
:102FF00013968C91882309F448C3E1EDF1E0CE0EDD
:10300000DF1ED6018C91EFE2FEEFCE0EDF1E88238D
:1030100009F418C1222309F0E0C029EE31E0C20E04
:10302000D31ED6018C91E7E1FEEFCE0EDF1E882382
:1030300071F1EBE6F1E0949108C08091C00085FF4A
:10304000FCCF9093C600319694919923B1F7EEEAA4
:10305000F2E0949108C08091C00085FFFCCF90936E
:10306000C600319694919923B1F786E495E061E02A
:1030700070E04AE050E00E94BF2C8091C00085FFC4
:10308000FCCF8AE08093C6000E940830FEC2EBE3CA
:10309000F1E0949108C08091C00085FFFCCF90932F
:1030A000C600319694919923B1F7E5E9F2E0949145
:1030B00008C08091C00085FFFCCF9093C600319678
:1030C00094919923B1F7F40107C08091C00085FF66
:1030D000FCCF31969093C60090819923B1F7EAE82E
:1030E000F2E0949108C08091C00085FFFCCF9093DE
:1030F000C600319694919923B1F7C6012EEE31E0C6
:10310000C20ED31EB6010DDF4BEF5FEFC40ED51E0E
:10311000D6019C91E7E1FEEFCE0EDF1E8DE8989F71
:10312000F0011124E251FE4FEC0DFD1D07C080910E
:10313000C00085FFFCCF31969093C6009081992303
:10314000B1F7E4E8F2E0949108C08091C00085FFF7
:10315000FCCF9093C600319694919923B1F723E860
:1031600032E0C20ED31ED6014D915D916D917C91DE
:10317000EDE7FDEFCE0EDF1E86E495E02AE030E0BD
:103180000E94702C8091C00085FFFCCF8AE0809364
:10319000C600A60147515E4FDA012C91E22FF0E004
:1031A000EE0FFF1FEE0FFF1FEC0DFD1DE651FE4F52
:1031B00083E892E0C80ED91ED6014D905D906D90C7
:1031C0007C908DE79DEFC80ED91E408251826282AD
:1031D00073822F5FDA012C932FC0EBE3F1E094911F
:1031E00008C08091C00085FFFCCF9093C600319647
:1031F00094919923B1F7E3E7F2E0949108C08091AC
:10320000C00085FFFCCF9093C6003196949199231E
:10321000B1F7F40107C08091C00085FFFCCF319663
:103220009093C60090819923B1F78091C00085FFEB
:10323000FCCF8AE08093C600C60182539E4F0E9455
:10324000AA7A39C0E9EEF1E0CE0EDF1ED6011C925B
:10325000E7E1FEEFCE0EDF1EEBE3F1E0949108C054
:103260008091C00085FFFCCF9093C6003196949169
:103270009923B1F7E2E6F2E0949108C08091C00092
:1032800085FFFCCF9093C600319694919923B1F7B6
:10329000F40107C08091C00085FFFCCF3196909368
:1032A000C60090819923B1F78091C00085FFFCCFC3
:1032B0008AE08093C600D60112961C921A8A1D8A53
:1032C000198A188A8BE594E09F878E87FEE4AF2EDB
:1032D000B12CAC0CBD1CEFE2F0E0CE0EDF1ED50130
:1032E000CD92DC92E1EDFFEFCE0EDF1ED4018C918A
:1032F0008F3209F090C0C4016FE270E00E94421169
:103300007C010894E11CF11C3E010894611C711CB5
:103310002501E2E12E2E312C2C0E3D1E77C0C70177
:103320006FE270E00E9442115C01009709F481C0D5
:10333000E816F90608F07DC08C010E191F09C301BB
:10334000B701A8010E946211060D171DF801108235
:10335000F30107C08091C00085FFFCCF31969093A8
:10336000C60090819923B1F78091C00085FFFCCF02
:10337000FAE0F093C600D2016D917C916115710560
:1033800019F460E070E002C06C5F7F4FC101A301DF
:1033900021E00E949681882371F5EEE4F2E0949199
:1033A00008C08091C00085FFFCCF9093C600319685
:1033B00094919923B1F7FE01319607C08091C00026
:1033C00085FFFCCF31969093C60090819923B1F789
:1033D000ECE4F2E0949108C08091C00085FFFCCF3E
:1033E0009093C600319694919923B1F78091C000D3
:1033F00085FFFCCF1BC12EE030E02C0F3D1FF201FA
:103400003183208375010894E11CF11CE114F1045F
:1034100009F085CF0BC040E550E0C40ED51ED501A4
:10342000CD92DC92E0EBFFEFCE0EDF1E082DF92CE3
:1034300001C00E2DF601E25BFF4F2DA5222309F4FA
:10344000B1C0608171816115710519F460E070E0AF
:1034500002C06C5F7F4FC60182539E4F402F5F2D8D
:1034600021E00E949681882309F46CC04FED51E061
:10347000C40ED51ED6014D915D916D917C91ECE904
:10348000F0E0CE0EDF1ED6014D935D936D937C93DD
:103490001397E5E8FDEFCE0EDF1EEEE3F2E0949128
:1034A00008C08091C00085FFFCCF9093C600319684
:1034B00094919923B1F7802F9F2D9C01F90107C0AA
:1034C0008091C00085FFFCCF31969093C60090811B
:1034D0009923B1F7E6E3F2E0949108C08091C0002F
:1034E00085FFFCCF9093C600319694919923B1F754
:1034F00086E495E02AE030E00E94702C8091C000C4
:1035000085FFFCCF8AE08093C60023E832E0C20E3C
:10351000D31ED6011D921D921D921C921397E8E2B4
:10352000F2E0949108C08091C00085FFFCCF909399
:10353000C600319694919923B1F78091C00085FF20
:10354000FCCF99C0E4E1F2E0949108C08091C00002
:1035500085FFFCCF9093C600319694919923B1F7E3
:10356000802F9F2D9C01F90107C08091C00085FF2D
:10357000FCCF31969093C60090819923B1F7E2E198
:10358000F2E0949108C08091C00085FFFCCF909339
:10359000C600319694919923B1F78091C00085FFC0
:1035A000FCCF44C0608171816115710519F460E040
:1035B00070E002C06C5F7F4FC60182539E4F402F68
:1035C0005F2D26E50E949681882309F033C0EEEF37
:1035D000F1E0949108C08091C00085FFFCCF9093EA
:1035E000C600319694919923B1F7802F9F2D9C01AD
:1035F000F90107C08091C00085FFFCCF3196909300
:10360000C60090819923B1F7ECEFF1E0949108C0E6
:103610008091C00085FFFCCF9093C60031969491B5
:103620009923B1F78091C00085FFFCCF8AE0809399
:10363000C60028C081E0F6018083EAEEF1E09491B3
:1036400008C08091C00085FFFCCF9093C6003196E2
:1036500094919923B1F7F40107C08091C00085FFD0
:10366000FCCF31969093C60090819923B1F7809159
:10367000C00085FFFCCF8AE08093C600802F9F2D7D
:103680000E9438D0CE010E9615D9AD960FB6F8949B
:10369000DEBF0FBECDBFCF91DF911F910F91FF9085
:1036A000EF90DF90CF90BF90AF909F908F907F90E2
:1036B0006F905F904F903F902F900895EF92FF9200
:1036C0000F931F93CF93DF93EC010E9467888E01C5
:1036D00007511E4FD8018C919EECE92E91E0F92EF6
:1036E000EC0EFD1E882399F1C7010E94AA7AF80109
:1036F0006081615060838DE8689FB0011124625140
:103700007E4F6C0F7D1FCE0141E021E053DCD801DC
:10371000EC91F0E0EE0FFF1FEE0FFF1FEC0FFD1F0F
:10372000E651FE4F4081518162817381CD57DD4F5B
:10373000488359836A837B83C358D240C7010E9460
:1037400093798B81882389F181E08A832EC00E943E
:103750004488C7010E94AA7A1A828FE291E00E94EF
:10376000DB5E8091C20A882301F11092C20A809127
:103770000A08C82FD0E0CC0FDD1FCD5FDD4E688179
:103780007981882777FD8095982F0E9497E3209173
:10379000AB033091AC034091AD035091AE030E9456
:1037A00003E5181614F419821882DF91CF911F9146
:1037B0000F91FF90EF900895FC0181E08183CF018C
:1037C00040E021E0F7CBEF92FF920F931F93CF934E
:1037D000DF938C01FC01138286A9882321F0C801A4
:1037E000C3960E94AA7A27EAE22E21E0F22EE00E8A
:1037F000F11EC70160E045E30E945978882309F56E
:10380000EBE3F1E0949108C08091C00085FFFCCF0C
:103810009093C600319694919923B1F7EFE1F3E0CC
:10382000949108C08091C00085FFFCCF9093C600A2
:10383000319694919923B1F78091C00085FFFCCF18
:103840007DC0E801C455DE4FCE01B70141E00E94C2
:103850002083882341F5CE01B70140E00E942083F8
:10386000882309F5EBE6F1E0949108C08091C0004F
:1038700085FFFCCF9093C600319694919923B1F7C0
:10388000ECE0F3E0949108C08091C00085FFFCCF8C
:103890009093C600319694919923B1F78091C0001E
:1038A00085FFFCCF4BC0C801C396BE010E949C7D22
:1038B000882309F5EBE6F1E0949108C08091C000FF
:1038C00085FFFCCF9093C600319694919923B1F770
:1038D000ECEFF2E0949108C08091C00085FFFCCF2E
:1038E0009093C600319694919923B1F78091C000CE
:1038F00085FFFCCF23C081E0F8018383EBE3F1E097
:10390000949108C08091C00085FFFCCF9093C600C1
:10391000319694919923B1F7E1EFF2E0949108C0C8
:103920008091C00085FFFCCF9093C60031969491A2
:103930009923B1F78091C00085FFFCCF8AE0809386
:10394000C600D801AC5ABF4FF801F3968BE1019045
:103950000D928150E1F7F80181A992A90E5A1F4FEB
:10396000F8019183808302551040C8018F96025B55
:103970001F4FF80191838083DF91CF911F910F91A9
:10398000FF90EF9008952F923F924F925F926F9227
:103990007F929F92AF92BF92CF92DF92EF92FF926F
:1039A0000F931F93DF93CF93CDB7DEB7CC55D040A5
:1039B0000FB6F894DEBF0FBECDBF6C01662311F5C4
:1039C00027E832E0C20ED31ED6018C91E9E7FDEF65
:1039D000CE0EDF1E882309F4E3C02FE732E0C20ECB
:1039E000D31ED601ED90FD900D911C91E1E8FDEF05
:1039F000CE0EDF1E0E9454DBE616F70608071907F5
:103A000008F4CEC027E832E0C20ED31ED6011C92C5
:103A1000E9E7FDEFCE0EDF1ED60113968C918823C9
:103A200039F4C601D0DEF6018381882309F4B8C0D9
:103A300000D000D0EDB7FEB731967E010894E11CAE
:103A4000F11CADB7BEB71296FC92EE92119782E6CA
:103A500091E093838283D6019D968D919C919E9750
:103A6000958384830E9471118701EDB7FEB7369666
:103A70000FB6F894FEBF0FBEEDBF57010AC0D801C4
:103A80008C91992787FD90950E9438E7F8018193E2
:103A90008F01F50101900020E9F73197EA19FB0940
:103AA000802F8E198E175CF363E3A62EB12CAC0C1D
:103AB000BD1CC50140E050E060E070E00E949379D9
:103AC00099245DE3E52EF12CEC0EFD1E2E010894E9
:103AD000411C511C4FE1642E712C6C0E7D1E3BE588
:103AE000232E31E0332E42C0D8018C9190E00E9409
:103AF00038E7F80181938F01D7010D900020E9F795
:103B00001197AE19BF09802F8E198A176CF327966B
:103B10008FAD27978E3751F1C701B20145E050E0D4
:103B20000E945411009711F500D000D0EDB7FEB7F8
:103B30003196ADB7BEB712967C926E9211973382D2
:103B40002282558244820E947111EDB7FEB73696EB
:103B50000FB6F894FEBF0FBEEDBFC3010E94545FC5
:103B600087E591E00E94DB5E99249394C501B7013B
:103B700040E050E00E94BB7C181614F48701BCCFD3
:103B8000992041F48FEF9FEFD6019E969C938E93E0
:103B90009D9706C0F60185A596A5019696A785A7CF
:103BA000C45ADF4F0FB6F894DEBF0FBECDBFCF9122
:103BB000DF911F910F91FF90EF90DF90CF90BF901A
:103BC000AF909F907F906F905F904F903F902F901D
:103BD00008952F923F924F925F926F927F928F92B1
:103BE0009F92AF92BF92CF92DF92EF92FF920F938C
:103BF0001F93DF93CF93CDB7DEB7CF58D0400FB62A
:103C0000F894DEBF0FBECDBF8C013B016A0184E09A
:103C100090E0C80ED91EF8017196C757DF4FF9839F
:103C2000E883C958D040C8010496CA57DF4F99832A
:103C30008883C658D040C857DF4F1882C858D04034
:103C4000B6E6EB2EF12CEC0EFD1EF7013B96C557A8
:103C5000DF4FF983E883CB58D040A8E88A2EA2E052
:103C60009A2E800E911EFAE8AF2EF2E0BF2EA00E23
:103C7000B11EEEE02E2E312C2C0E3D1E77E4472E89
:103C8000512C4C0E5D1EC2010496C357DF4F998321
:103C90008883CD58D040EBE3F1E09491C157DF4FDA
:103CA0009883CF58D0404EC1F7018385482F50E00C
:103CB000BA01687170706031710509F051C1F40189
:103CC000208131812130310509F44AC1223031058A
:103CD00009F446C1F701DE0111969081903239F066
:103CE0008E2F8E19883011F48EE28D939D9331962C
:103CF000C557DF4F88819981CB58D040E817F90725
:103D000061F71C921E86F3018081882329F4C1018A
:103D100060E072E00E943711C101B3010E943711C7
:103D2000C101BE016F5F7F4F0E943711C10160E08A
:103D300072E00E9437111CA61FA61BA61AA68BE5CF
:103D400094E099A788A7CE018C96B601AE014F5F8B
:103D50005F4F21E00E949681882309F03FC0F40163
:103D600080819181892BD1F5C157DF4F9881CF5840
:103D7000D040EBE3F1E008C08091C00085FFFCCFAC
:103D80009093C600319694919923B1F7E2E0F2E066
:103D900007C08091C00085FFFCCF31969093C6008C
:103DA00090819923B1F78091C00085FFFCCFFAE0A4
:103DB000F093C600FE01319607C08091C00085FFD8
:103DC000FCCF31969093C60090819923B1F78091F2
:103DD000C00085FFFCCF8AE08093C600C357DF4F49
:103DE000A881B981CD58D040FE01BC968BE10190ED
:103DF0000D928150E1F78AA59BA5F20193838283FE
:103E00008BE594E091838083C801B101A201E1DEDA
:103E1000C2010E945A14CE0188960E945A1492C080
:103E2000953E09F48FC09E3209F48CC09F3509F489
:103E300089C0F8019189992331F09E3209F482C03A
:103E40009F3509F47FC043FD7DC080E0603171057E
:103E500009F481E0F80184A7882349F4F7018085FB
:103E6000873409F06FC081858E3709F46BC0CA575B
:103E7000DF4FA881B981C658D040F70180818032D8
:103E800041F08E2F8E19883011F48EE28D9380814F
:103E90008D933196C557DF4F88819981CB58D0409B
:103EA000E817F90759F71C92F40180819181009776
:103EB00029F5F30107C08091C00085FFFCCF319642
:103EC0009093C60090819923B1F7CA57DF4FE881DC
:103ED000F981C658D04007C08091C00085FFFCCF53
:103EE00031969093C60090819923B1F78091C000DC
:103EF00085FFFCCFFAE0F093C60024C08130910525
:103F000039F4F501808191810196918380831AC0F3
:103F10000297C1F4C857DF4FF881C858D0402F2FFF
:103F200030E0F5018081918128173907F1F0C857F9
:103F3000DF4FF881C858D040FF5FC857DF4FF88384
:103F4000C858D040C601B701C757DF4F48815981D3
:103F5000C958D0400E94BB7C18160CF4A5CE05C0F1
:103F6000F7019081992309F05BCFC157DF4F0FB65E
:103F7000F894DEBF0FBECDBFCF91DF911F910F919F
:103F8000FF90EF90DF90CF90BF90AF909F908F9079
:103F90007F906F905F904F903F902F900895EF9299
:103FA000FF920F931F93DF93CF93CDB7DEB76F9739
:103FB0000FB6F894DEBF0FBECDBF7C018C01025B53
:103FC0001F4F805B9F4FF8019183808328E832E088
:103FD000E20EF31E21E030E0F701219331937F01DF
:103FE0001182108226E73DEFE20EF31E049640E0B8
:103FF00050E060E070E00E949379F8012081318107
:10400000DE011596F90134968BE101900D928150F5
:10401000E1F7F901828193819C838B838BE594E0A6
:104020009A838983C70165E172E08E010F5F1F4F9C
:10403000A801CFDDC8010E945A14F701E657FD4FD1
:10404000808191816F960FB6F894DEBF0FBECDBF11
:10405000CF91DF911F910F91FF90EF900895EF9214
:10406000FF920F931F93DF93CF93CDB7DEB76F9778
:104070000FB6F894DEBF0FBECDBF7C018C01025B92
:104080001F4F805B9F4FF8019183808328E832E0C7
:10409000E20EF31E22E030E0F7013183208328E7AF
:1040A0003DEFE20EF31EF701E657FD4F60831182EC
:1040B000049640E050E060E070E00E949379F801DF
:1040C00020813181DE011596F90134968BE1019052
:1040D0000D928150E1F7F901828193819C838B835A
:1040E0008BE594E09A838983C70165E172E08E01D4
:1040F0000F5F1F4FA8016DDDC8010E945A146F9613
:104100000FB6F894DEBF0FBECDBFCF91DF911F91E8
:104110000F91FF90EF900895EF92FF920F931F93EE
:10412000DF93CF93CDB7DEB76F970FB6F894DEBFAE
:104130000FBECDBF7C0188E892E0E80EF91EF701C2
:104140001182108288E79DEFE80EF91E87010D5C51
:104150001F4FC80140E050E060E070E00E9493799A
:10416000DE011596F8018BE101900D928150E1F787
:10417000F70181A992A99C838B838BE594E09A83B4
:104180008983C70165E172E08E010F5F1F4FA801AF
:1041900020DDC8010E945A146F960FB6F894DEBF56
:1041A0000FBECDBFCF91DF911F910F91FF90EF9088
:1041B00008950F931F93CF93DF93DC01D3961C9246
:1041C000D397D6961C92D697D2961C921E92D197D0
:1041D0008BE594E0D0969C938E939F97AC5ABF4FFB
:1041E0001C9213961C92A755B040FD01E05BFF4F57
:1041F000AE5ABF4F11961C921E92A255B0409183A9
:104200008083ED01C159DF4FFE0120E030E0482FEF
:10421000148217821382128240839183215E3F4F62
:104220007F9681E02633380799F7A855BE4F89E17C
:104230008C9313961C9258961C921B961C92139664
:104240001C92A15DB140FD01E653FE4FA453BE4F49
:1042500011961C921E9240839183A155BF4F1D92CF
:104260001D921D921C92139718961D921D921D92DD
:104270001C921397A358B24012961C921297139651
:104280001C9213971C9211961C9211978D01015844
:104290001D4FF8011082118212821382AB55BE4F5E
:1042A00011961C921E92AC5BBF4F1C92FE01C9017D
:1042B00011920197E9F7A256BF4F81E08C93A7585E
:1042C000B2409E961C921E929D970E9454DB6857A6
:1042D0007C4E8F4F9F4FF80160837183828393835D
:1042E000DF91CF911F910F910895DF93CF93CDB7B9
:1042F000DEB72A970FB6F894DEBF0FBECDBF809110
:10430000160290911702A0911802B09119028B83A6
:104310009C83AD83BE83FE01339624E630E080812A
:10432000F999FECF1FBA32BD21BD80BD0FB6F894FA
:10433000FA9AF99A0FBE2F5F3F4F2836310511F0D8
:104340003196EDCFE6E6FAE08081F999FECF1FBA0B
:1043500032BD21BD80BD0FB6F894FA9AF99A0FBE0E
:104360002F5F3F4F2837310511F03196EDCFE6E54D
:10437000FAE08081F999FECF1FBA32BD21BD80BD20
:104380000FB6F894FA9AF99A0FBE2F5F3F4F28386C
:10439000310511F03196EDCFE6E7FAE08081F99929
:1043A000FECF1FBA32BD21BD80BD0FB6F894FA9A78
:1043B000F99A0FBE2F5F3F4F2839310511F0319622
:1043C000EDCFEAE8FAE08081F999FECF1FBA32BD5D
:1043D00021BD80BD0FB6F894FA9AF99A0FBE2F5FEF
:1043E0003F4F2C39310511F03196EDCFEEE8FAE070
:1043F0008081F999FECF1FBA32BD21BD80BD0FB6B5
:10440000F894FA9AF99A0FBE2F5F3F4F203A310580
:1044100011F03196EDCFE6E8FAE08081F999FECF10
:104420001FBA32BD21BD80BD0FB6F894FA9AF99A31
:104430000FBE2F5F3F4F243A310511F03196EDCF7B
:10444000EEE9FAE08081F999FECF1FBA32BD21BDB5
:1044500080BD0FB6F894FA9AF99A0FBE2F5F3F4FBE
:10446000283A310511F03196EDCFE2E5FAE080818E
:10447000F999FECF1FBA32BD21BD80BD0FB6F894A9
:10448000FA9AF99A0FBE2F5F3F4F2C3A310511F07F
:104490003196EDCFE2E9FAE08081F999FECF1FBABB
:1044A00032BD21BD80BD0FB6F894FA9AF99A0FBEBD
:1044B0002F5F3F4F203B310511F03196EDCFE6E9FC
:1044C000FAE08081F999FECF1FBA32BD21BD80BDCF
:1044D0000FB6F894FA9AF99A0FBE2F5F3F4F243B1C
:1044E000310511F03196EDCFEAE9FAE08081F999D2
:1044F000FECF1FBA32BD21BD80BD0FB6F894FA9A27
:10450000F99A0FBE2F5F3F4F283B310511F03196CE
:10451000EDCFEBEEF7E08081F999FECF1FBA32BD07
:1045200021BD80BD0FB6F894FA9AF99A0FBE2F5F9D
:104530003F4F243C310511F03196EDCFE7EFF7E026
:104540008081F999FECF1FBA32BD21BD80BD0FB663
:10455000F894FA9AF99A0FBE2F5F3F4F203D31052C
:1045600011F03196EDCFE2E5F2E18081F999FECFCD
:104570001FBA32BD21BD80BD0FB6F894FA9AF99AE0
:104580000FBE2F5F3F4F223D310511F03196EDCF29
:10459000E4E5F2E18081F999FECF1FBA32BD21BD79
:1045A00080BD0FB6F894FA9AF99A0FBE2F5F3F4F6D
:1045B000243D310511F03196EDCFE6E5F2E1808141
:1045C000F999FECF1FBA32BD21BD80BD0FB6F89458
:1045D000FA9AF99A0FBE2F5F3F4F263D310511F031
:1045E0003196EDCFE8E5F2E18081F999FECF1FBA6F
:1045F00032BD21BD80BD0FB6F894FA9AF99A0FBE6C
:104600002F5F3F4F283D310511F03196EDCFEAE5A0
:10461000F2E18081F999FECF1FBA32BD21BD80BD84
:104620000FB6F894FA9AF99A0FBE2F5F3F4F2A3DC2
:10463000310511F03196EDCFECE5F2E18081F99989
:10464000FECF1FBA32BD21BD80BD0FB6F894FA9AD5
:10465000F99A0FBE2F5F3F4F2C3D310511F0319677
:10466000EDCFE6E0F8E08081F999FECF1FBA32BDC8
:1046700021BD80BD0FB6F894FA9AF99A0FBE2F5F4C
:104680003F4F203E310511F03196EDCFECEBF3E0DA
:104690008081F999FECF1FBA32BD21BD80BD0FB612
:1046A000F894FA9AF99A0FBE2F5F3F4F243E3105D6
:1046B00011F03196EDCFE0ECF3E08081F999FECF77
:1046C0001FBA32BD21BD80BD0FB6F894FA9AF99A8F
:1046D0000FBE2F5F3F4F283E310511F03196EDCFD1
:1046E000E4ECF3E08081F999FECF1FBA32BD21BD21
:1046F00080BD0FB6F894FA9AF99A0FBE2F5F3F4F1C
:104700002C3E310511F03196EDCF80E290E09A8396
:104710008983FE0131968081F999FECF1FBA32BD9F
:1047200021BD80BD0FB6F894FA9AF99A0FBE2D3EBE
:10473000310521F031962DEE30E0EDCF80911A0257
:1047400090911B02A0911C02B0911D028F8398874B
:10475000A987BA87FE01379684E690E02081F9990F
:10476000FECF1FBA92BD81BD20BD0FB6F894FA9A54
:10477000F99A0FBE8736910519F001963196EECF62
:10478000ECE2F3E0949108C08091C00085FFFCCF7B
:104790009093C600319694919923B1F7EFE5F5E037
:1047A000949108C08091C00085FFFCCF9093C60013
:1047B000319694919923B1F78091C00085FFFCCF89
:1047C0008AE08093C6002A960FB6F894DEBF0FBE2B
:1047D000CDBFCF91DF910895DF93CF93CDB7DEB7F3
:1047E000E0970FB6F894DEBF0FBECDBFDE01119685
:1047F000EBE0F4E080E101900D928150E1F7DE0101
:104800005196EBEFF3E080E101900D928150E1F7DA
:10481000DE019196EBEEF3E080E101900D92815084
:10482000E1F789819A81AB81BC818093660A90937C
:10483000670AA093680AB093690A89899A89AB8943
:10484000BC898093560A9093570AA093580AB09354
:10485000590A89A19AA1ABA1BCA18093760A909331
:10486000770AA093780AB093790A8D819E81AF81EF
:10487000B88580936A0A90936B0AA0936C0AB093F0
:104880006D0A8D899E89AF89B88D80935A0A90935D
:104890005B0AA0935C0AB0935D0A8DA19EA1AFA1B3
:1048A000B8A580937A0A90937B0AA0937C0AB09370
:1048B0007D0A89859A85AB85BC8580936E0A909325
:1048C0006F0AA093700AB093710A898D9A8DAB8D8F
:1048D000BC8D80935E0A90935F0AA093600AB093A8
:1048E000610A89A59AA5ABA5BCA580937E0A909381
:1048F0007F0AA093800AB093810A8D859E85AF853B
:10490000B8898093720A9093730AA093740AB09343
:10491000750A8D8D9E8DAF8DB8A18093620A90939C
:10492000630AA093640AB093650A8DA59EA5AFA5FE
:10493000B8A98093820A9093830AA093840AB093C3
:10494000850A0E94926480E090E0AFE2B4E4809334
:104950008A0A90938B0AA0938C0AB0938D0A80E008
:1049600090E8ABE3B5E480938E0A90938F0AA0930E
:10497000900AB093910A20E030E040E050E02093AC
:10498000860A3093870A4093880A5093890A80E206
:104990009EE4A0E0B0E08093520A9093530AA09363
:1049A000540AB093550A20939E0A30939F0A40936D
:1049B000A00A5093A10A80E090E0A0E2B1E48093C5
:1049C000920A9093930AA093940AB093950A8093C5
:1049D000960A9093970AA093980AB093990A8093A5
:1049E0009A0A90939B0AA0939C0AB0939D0A2093E5
:1049F000F3073093F4074093F5075093F60720939D
:104A0000EF073093F0074093F1075093F20720939C
:104A1000EB073093EC074093ED075093EE0720939C
:104A2000FF07309300084093010850930208209339
:104A3000FB073093FC074093FD075093FE0720933C
:104A4000F7073093F8074093F9075093FA0784EB80
:104A500090E0909353128093521286E490E09093EA
:104A60005512809354122FEF30E030935712209359
:104A7000561280EF90E0909359128093581284E67A
:104A800090E090935B1280935A1230935D122093C2
:104A90005C128DEC9CECACE4BEEB8093060890932A
:104AA0000708A0930808B09309088AE999E9A1EBDF
:104AB000B1E48093BC039093BD03A093BE03B09375
:104AC000BF0361E77DE38AE89FE30E94059060935E
:104AD000C0037093C1038093C2039093C30360E04B
:104AE00070E084EE92E40E9411906093C40370938E
:104AF000C5038093C6039093C7030E94CE8F80E0C6
:104B000090E0A0E8BFE38093C8039093C903A0930B
:104B1000CA03B093CB03ECE2F3E0949108C0809118
:104B2000C00085FFFCCF9093C600319694919923E5
:104B3000B1F7E2E3F3E0949108C08091C00085FFF3
:104B4000FCCF9093C600319694919923B1F7809150
:104B5000C00085FFFCCF8AE08093C600E0960FB6C8
:104B6000F894DEBF0FBECDBFCF91DF910895CF93F4
:104B7000DF93CCE2D3E0FE01949108C08091C000A5
:104B800085FFFCCF9093C600319694919923B1F79D
:104B9000EFE4F5E0949108C08091C00085FFFCCF60
:104BA0009093C600319694919923B1F78091C000FB
:104BB00085FFFCCF8AE08093C600FE019491ECE271
:104BC000F3E008C08091C00085FFFCCF9093C60041
:104BD000319694919923B1F74091660A5091670AF2
:104BE0006091680A7091690A87E495E00E94A13B90
:104BF00040916A0A50916B0A60916C0A70916D0A3B
:104C000084E495E00E94A13B40916E0A50916F0AA6
:104C10006091700A7091710A81E495E00E94A13B55
:104C20004091720A5091730A6091740A7091750AEA
:104C30008EE395E00E94A13BEEE1F2E007C0809197
:104C4000C00085FFFCCF31969093C60090819923D8
:104C5000B1F78091C00085FFFCCF8AE08093C60049
:104C6000FE019491ECE2F3E008C08091C00085FF62
:104C7000FCCF9093C600319694919923B1F7E4E26A
:104C8000F5E0949108C08091C00085FFFCCF90931F
:104C9000C600319694919923B1F78091C00085FFA9
:104CA000FCCF8AE08093C600FE019491ECE2F3E031
:104CB00008C08091C00085FFFCCF9093C60031965C
:104CC00094919923B1F74091560A5091570A6091F7
:104CD000580A7091590A8BE195E00E94A13B4091DE
:104CE0005A0A50915B0A60915C0A70915D0A88E1F2
:104CF00095E00E94A13B40915E0A50915F0A60914D
:104D0000600A7091610A85E195E00E94A13B4091A3
:104D1000620A5091630A6091640A7091650A82E1A7
:104D200095E00E94A13BEEE1F2E007C08091C00057
:104D300085FFFCCF31969093C60090819923B1F7FF
:104D40008091C00085FFFCCF8AE08093C600FE0101
:104D50009491ECE2F3E008C08091C00085FFFCCFA5
:104D60009093C600319694919923B1F7E4EFF4E063
:104D7000949108C08091C00085FFFCCF9093C6003D
:104D8000319694919923B1F78091C00085FFFCCFB3
:104D90008AE08093C600FE019491ECE2F3E008C043
:104DA0008091C00085FFFCCF9093C600319694910E
:104DB0009923B1F74091760A5091770A6091780A69
:104DC0007091790A8BEE94E00E94D53B40917A0A6B
:104DD00050917B0A60917C0A70917D0A88EE94E084
:104DE0000E94D53B40917E0A50917F0A6091800AD3
:104DF0007091810A85EE94E00E94D53B4091820A31
:104E00005091830A6091840A7091850A82EE94E041
:104E10000E94D53BEEE1F2E007C08091C00085FF23
:104E2000FCCF31969093C60090819923B1F7809181
:104E3000C00085FFFCCF8AE08093C600FE019491FC
:104E4000ECE2F3E008C08091C00085FFFCCF9093B6
:104E5000C600319694919923B1F7EDEAF4E094916C
:104E600008C08091C00085FFFCCF9093C6003196AA
:104E700094919923B1F78091C00085FFFCCF8AE01F
:104E80008093C600FE019491ECE2F3E008C08091AB
:104E9000C00085FFFCCF9093C60031969491992372
:104EA000B1F740918A0A50918B0A60918C0A7091F7
:104EB0008D0A84EA94E00E94A13B40918E0A5091B1
:104EC0008F0A6091900A7091910A81EA94E00E94A1
:104ED000A13BEEE1F2E007C08091C00085FFFCCF6E
:104EE00031969093C60090819923B1F78091C000CC
:104EF00085FFFCCF8AE08093C600FE019491ECE22E
:104F0000F3E008C08091C00085FFFCCF9093C600FD
:104F1000319694919923B1F7EEEEF3E0949108C0A5
:104F20008091C00085FFFCCF9093C600319694918C
:104F30009923B1F78091C00085FFFCCF8AE0809370
:104F4000C600FE019491ECE2F3E008C08091C0003D
:104F500085FFFCCF9093C600319694919923B1F7C9
:104F60004091860A5091870A6091880A7091890A57
:104F700085EE93E00E94A13B40919E0A50919F0ACA
:104F80006091A00A7091A10A82EE93E00E94A13B79
:104F90004091520A5091530A6091540A7091550AF7
:104FA0008FED93E00E94D53B4091920A5091930A75
:104FB0006091940A7091950A8CED93E00E94A13B58
:104FC0004091960A5091970A6091980A7091990AB7
:104FD00089ED93E00E94A13B40919A0A50919B0A6F
:104FE00060919C0A70919D0A86ED93E00E94A13B1E
:104FF000EEE1F2E007C08091C00085FFFCCF319662
:105000009093C60090819923B1F78091C00085FFED
:10501000FCCF8AE08093C600FE019491ECE2F3E0BD
:1050200008C08091C00085FFFCCF9093C6003196E8
:1050300094919923B1F7E4ECF3E0949108C0809146
:10504000C00085FFFCCF9093C600319694919923C0
:10505000B1F78091C00085FFFCCF8AE08093C60045
:10506000FE019491ECE2F3E008C08091C00085FF5E
:10507000FCCF9093C600319694919923B1F740915B
:10508000EB075091EC076091ED077091EE078BEB09
:1050900093E00E94A13B4091EF075091F00760918F
:1050A000F1077091F20788EB93E00E94A13B4091D9
:1050B000F3075091F4076091F5077091F60785EBBF
:1050C00093E00E94A13BEEE1F2E007C08091C000B6
:1050D00085FFFCCF31969093C60090819923B1F75C
:1050E0008091C00085FFFCCF8AE08093C600FE015E
:1050F0009491ECE2F3E008C08091C00085FFFCCF02
:105100009093C600319694919923B1F7EBE9F3E0BF
:10511000949108C08091C00085FFFCCF9093C60099
:10512000319694919923B1F78091C00085FFFCCF0F
:105130008AE08093C600FE019491ECE2F3E008C09F
:105140008091C00085FFFCCF9093C600319694916A
:105150009923B1F74091F7075091F8076091F9074B
:105160007091FA0782E993E00E94A13B4091FB070E
:105170005091FC076091FD077091FE078FE893E066
:105180000E94A13B4091FF075091000860910108E7
:10519000709102088CE893E00E94A13BEEE1F2E0FE
:1051A00007C08091C00085FFFCCF31969093C60068
:1051B00090819923B1F78091C00085FFFCCF8AE0F0
:1051C0008093C600FE019491ECE2F3E008C0809168
:1051D000C00085FFFCCF9093C6003196949199232F
:1051E000B1F7EEE7F3E0949108C08091C00085FF2D
:1051F000FCCF9093C600319694919923B1F780919A
:10520000C00085FFFCCF8AE08093C600FE01949128
:10521000ECE2F3E008C08091C00085FFFCCF9093E2
:10522000C600319694919923B1F74091BC035091F7
:10523000BD036091BE037091BF0384E793E00E94B9
:10524000A13B6091C0037091C1038091C203909112
:10525000C3030E940B90AB01BC0181E793E00E9465
:10526000A13B6091C4037091C5038091C6039091E6
:10527000C7030E941790AB01BC018EE693E00E9429
:10528000A13BEEE1F2E007C08091C00085FFFCCFBA
:1052900031969093C60090819923B1F78091C00018
:1052A00085FFFCCF8AE08093C600DF91CF910895FF
:1052B0000F931F93DF93CF93CDB7DEB72A970FB627
:1052C000F894DEBF0FBECDBF80911A0290911B02F1
:1052D000A0911C02B0911D028F839887A987BA877D
:1052E000FE01339604E610E0F999FECF12BD01BD30
:1052F000F89A80B580830F5F1F4F0836110511F0B3
:105300003196F2CFCE010796BE016D5F7F4F43E02D
:1053100050E00E945411009709F0A8C1E6E6FAE0B7
:10532000F999FECF12BD01BDF89A80B580830F5F59
:105330001F4F0837110511F03196F2CFE6E5FAE07C
:10534000F999FECF12BD01BDF89A80B580830F5F39
:105350001F4F0838110511F03196F2CFE6E7FAE059
:10536000F999FECF12BD01BDF89A80B580830F5F19
:105370001F4F0839110511F03196F2CF0E94926447
:10538000EAE8FAE0F999FECF12BD01BDF89A80B5BE
:1053900080830F5F1F4F0C39110511F03196F2CF4A
:1053A000EEE8FAE0F999FECF12BD01BDF89A80B59A
:1053B00080830F5F1F4F003A110511F03196F2CF35
:1053C000E6E8FAE0F999FECF12BD01BDF89A80B582
:1053D00080830F5F1F4F043A110511F03196F2CF11
:1053E000EEE9FAE0F999FECF12BD01BDF89A80B559
:1053F00080830F5F1F4F083A110511F03196F2CFED
:10540000E2E5FAE0F999FECF12BD01BDF89A80B548
:1054100080830F5F1F4F0C3A110511F03196F2CFC8
:10542000E2E9FAE0F999FECF12BD01BDF89A80B524
:1054300080830F5F1F4F003B110511F03196F2CFB3
:10544000E6E9FAE0F999FECF12BD01BDF89A80B500
:1054500080830F5F1F4F043B110511F03196F2CF8F
:10546000EAE9FAE0F999FECF12BD01BDF89A80B5DC
:1054700080830F5F1F4F083B110511F03196F2CF6B
:10548000EBEEF7E0F999FECF12BD01BDF89A80B5B9
:1054900080830F5F1F4F043C110511F03196F2CF4E
:1054A000E7EFF7E0F999FECF12BD01BDF89A80B59C
:1054B00080830F5F1F4F003D110511F03196F2CF31
:1054C000E2E5F2E1F999FECF12BD01BDF89A80B58F
:1054D00080830F5F1F4F023D110511F03196F2CF0F
:1054E000E4E5F2E1F999FECF12BD01BDF89A80B56D
:1054F00080830F5F1F4F043D110511F03196F2CFED
:10550000E6E5F2E1F999FECF12BD01BDF89A80B54A
:1055100080830F5F1F4F063D110511F03196F2CFCA
:10552000E8E5F2E1F999FECF12BD01BDF89A80B528
:1055300080830F5F1F4F083D110511F03196F2CFA8
:10554000EAE5F2E1F999FECF12BD01BDF89A80B506
:1055500080830F5F1F4F0A3D110511F03196F2CF86
:10556000ECE5F2E1F999FECF12BD01BDF89A80B5E4
:1055700080830F5F1F4F0C3D110511F03196F2CF64
:10558000E6E0F8E0F999FECF12BD01BDF89A80B5CA
:1055900080830F5F1F4F003E110511F03196F2CF4F
:1055A000ECEBF3E0F999FECF12BD01BDF89A80B59E
:1055B00080830F5F1F4F043E110511F03196F2CF2B
:1055C000E0ECF3E0F999FECF12BD01BDF89A80B589
:1055D00080830F5F1F4F083E110511F03196F2CF07
:1055E000E4ECF3E0F999FECF12BD01BDF89A80B565
:1055F00080830F5F1F4F0C3E110511F03196F2CFE3
:10560000FE013196F999FECF12BD01BDF89A80B521
:1056100080830D3E110521F031960DEE10E0F2CFA2
:105620000E94CE8FECE2F3E0949108C08091C0001C
:1056300085FFFCCF9093C600319694919923B1F7E2
:10564000E4E5F3E0949108C08091C00085FFFCCFB1
:105650009093C600319694919923B1F78091C00040
:1056600085FFFCCF8AE08093C60001C0B5D87FDA01
:105670002A960FB6F894DEBF0FBECDBFCF91DF9153
:105680001F910F9108951F920F920FB60F920BB6B4
:105690000F9211242F933F934F938F939F93EF93E8
:1056A000FF934091C600E0914205F0914305319689
:1056B0009F012F7730703197809144059091450577
:1056C0002817390739F0EE53FB4F408330934305D9
:1056D00020934205FF91EF919F918F914F913F91C0
:1056E0002F910F900BBE0F900FBE0F901F9018952B
:1056F0009A01AB01203081EE380780E0480780E056
:10570000580749F182E08093C00060E079E08DE3C2
:1057100090E00E940FE72150304040405040CA01C5
:10572000B90122E030E040E050E00E940FE7309302
:10573000C5002093C4008091C10080618093C100A6
:105740008091C10088608093C1008091C100806811
:105750008093C10008951092C00020E130E0E7CFAF
:105760002091440530914505809142059091430573
:105770008217930719F42FEF3FEF0EC0F901EE5394
:10578000FB4F80812F5F3F4F2F773070309345055F
:1057900020934405282F30E0C901089580914405E5
:1057A000909145059093430580934205089508958F
:1057B0002F923F924F925F926F927F928F929F9221
:1057C000AF92BF92CF92DF92EF92FF920F931F930F
:1057D000DF93CF93CDB7DEB7A0970FB6F894DEBFB7
:1057E0000FBECDBF1C016A017B014115510561054A
:1057F000710541F440E350E060E070E020E030E00B
:105800008BD055C0882499245401422E55246624F7
:10581000772401E010E00C0F1D1F080D191DC701B2
:10582000B601A30192010E94EDE6F801608308949D
:10583000811C911CA11CB11CC701B601A3019201DE
:105840000E94EDE6C901DA016C017D01C114D104A9
:10585000E104F104F1F681E0E82EF12CEC0EFD1EDE
:10586000E80CF91C3E010894611C711CD501C401AF
:105870000197A109B1096C01C818D90815C0F60132
:10588000EE0DFF1D40814A3010F4405D01C0495CBF
:10589000552747FD5095652F752FC10120E030E059
:1058A0003BD00894E108F1086E147F0441F7A096FC
:1058B0000FB6F894DEBF0FBECDBFCF91DF911F9121
:1058C0000F91FF90EF90DF90CF90BF90AF909F909F
:1058D0008F907F906F905F904F903F902F900895A2
:1058E0002115310539F48091C00085FFFCCF40932C
:1058F000C60008955DCFEF92FF920F931F939A0118
:10590000E62EFF2400E010E0B801A701E9DF1F91B7
:105910000F91FF90EF900895EF92FF920F931F93D6
:10592000CF93DF93EC017A018B012115310539F416
:105930008091C00085FFFCCFE092C60019C02A30DC
:105940003105A9F477FF0FC04DE250E060E070E050
:1059500020E030E0E1DF10950095F094E094E11C48
:10596000F11C011D111DCE01B801A7012AE020DFA5
:10597000DF91CF911F910F91FF90EF900895EF92DB
:10598000FF920F931F937B019A010027F7FC00956C
:10599000102FB801A701C0DF1F910F91FF90EF906A
:1059A00008950F931F938C014DE050E060E070E08C
:1059B00020E030E0B1DFC8014AE050E060E070E094
:1059C00020E030E0A9DF1F910F910895CF92DF9280
:1059D000EF92FF920F931F938C019A016B01EE24BB
:1059E000FF24B701A6017CDFC801DBDF1F910F9107
:1059F000FF90EF90DF90CF9008959F92AF92BF926B
:105A0000CF92DF92EF92FF920F931F93CF93DF938A
:105A1000EC017A018B01922ECB01BA0120E030E03B
:105A200040E050E00E94F5E2882364F4CE014DE2AC
:105A300050E060E070E020E030E06EDF17FB109592
:105A400017F9109520E030E040E05FE3AA240BC096
:105A5000CA01B90120E030E040E251E40E94FCE2DA
:105A60009B01AC01A394A91498F3C801B7010E944B
:105A70001CE27B018C010E9469E35B016C010E94C6
:105A800095E39B01AC01C801B7010E941BE27B01B9
:105A90008C01CE01B601A5012AE030E021DF99207A
:105AA00099F1EFE1F2E007C08091C00085FFFCCFE3
:105AB00031969093C60090819923B1F725C0C80113
:105AC000B70120E030E040E251E40E94D5E57B01DF
:105AD0008C010E9464E35B016C01CC24B7FCC09490
